{
  "_format": "hh-sol-artifact-1",
  "contractName": "Reader",
  "sourceName": "contracts/peripherals/Reader.sol",
  "abi": [
    {
      "inputs": [],
      "name": "BASIS_POINTS_DIVISOR",
      "outputs": [
        {
          "internalType": "uint256",
          "name": "",
          "type": "uint256"
        }
      ],
      "stateMutability": "view",
      "type": "function"
    },
    {
      "inputs": [],
      "name": "POSITION_PROPS_LENGTH",
      "outputs": [
        {
          "internalType": "uint256",
          "name": "",
          "type": "uint256"
        }
      ],
      "stateMutability": "view",
      "type": "function"
    },
    {
      "inputs": [],
      "name": "PRICE_PRECISION",
      "outputs": [
        {
          "internalType": "uint256",
          "name": "",
          "type": "uint256"
        }
      ],
      "stateMutability": "view",
      "type": "function"
    },
    {
      "inputs": [],
      "name": "USDG_DECIMALS",
      "outputs": [
        {
          "internalType": "uint256",
          "name": "",
          "type": "uint256"
        }
      ],
      "stateMutability": "view",
      "type": "function"
    },
    {
      "inputs": [
        {
          "internalType": "contract IVault",
          "name": "_vault",
          "type": "address"
        },
        {
          "internalType": "address",
          "name": "_tokenIn",
          "type": "address"
        },
        {
          "internalType": "address",
          "name": "_tokenOut",
          "type": "address"
        },
        {
          "internalType": "uint256",
          "name": "_amountIn",
          "type": "uint256"
        }
      ],
      "name": "getAmountOut",
      "outputs": [
        {
          "internalType": "uint256",
          "name": "",
          "type": "uint256"
        },
        {
          "internalType": "uint256",
          "name": "",
          "type": "uint256"
        }
      ],
      "stateMutability": "view",
      "type": "function"
    },
    {
      "inputs": [
        {
          "internalType": "contract IVault",
          "name": "_vault",
          "type": "address"
        },
        {
          "internalType": "address",
          "name": "_tokenIn",
          "type": "address"
        },
        {
          "internalType": "address",
          "name": "_tokenOut",
          "type": "address"
        },
        {
          "internalType": "uint256",
          "name": "_amountIn",
          "type": "uint256"
        }
      ],
      "name": "getFeeBasisPoints",
      "outputs": [
        {
          "internalType": "uint256",
          "name": "",
          "type": "uint256"
        },
        {
          "internalType": "uint256",
          "name": "",
          "type": "uint256"
        },
        {
          "internalType": "uint256",
          "name": "",
          "type": "uint256"
        }
      ],
      "stateMutability": "view",
      "type": "function"
    },
    {
      "inputs": [
        {
          "internalType": "address",
          "name": "_vault",
          "type": "address"
        },
        {
          "internalType": "address[]",
          "name": "_tokens",
          "type": "address[]"
        }
      ],
      "name": "getFees",
      "outputs": [
        {
          "internalType": "uint256[]",
          "name": "",
          "type": "uint256[]"
        }
      ],
      "stateMutability": "view",
      "type": "function"
    },
    {
      "inputs": [
        {
          "internalType": "address",
          "name": "_vault",
          "type": "address"
        },
        {
          "internalType": "address",
          "name": "_weth",
          "type": "address"
        },
        {
          "internalType": "uint256",
          "name": "_usdgAmount",
          "type": "uint256"
        },
        {
          "internalType": "address[]",
          "name": "_tokens",
          "type": "address[]"
        }
      ],
      "name": "getFullVaultTokenInfo",
      "outputs": [
        {
          "internalType": "uint256[]",
          "name": "",
          "type": "uint256[]"
        }
      ],
      "stateMutability": "view",
      "type": "function"
    },
    {
      "inputs": [
        {
          "internalType": "address",
          "name": "_vault",
          "type": "address"
        },
        {
          "internalType": "address",
          "name": "_weth",
          "type": "address"
        },
        {
          "internalType": "address[]",
          "name": "_tokens",
          "type": "address[]"
        }
      ],
      "name": "getFundingRates",
      "outputs": [
        {
          "internalType": "uint256[]",
          "name": "",
          "type": "uint256[]"
        }
      ],
      "stateMutability": "view",
      "type": "function"
    },
    {
      "inputs": [
        {
          "internalType": "contract IVault",
          "name": "_vault",
          "type": "address"
        },
        {
          "internalType": "address",
          "name": "_tokenIn",
          "type": "address"
        },
        {
          "internalType": "address",
          "name": "_tokenOut",
          "type": "address"
        }
      ],
      "name": "getMaxAmountIn",
      "outputs": [
        {
          "internalType": "uint256",
          "name": "",
          "type": "uint256"
        }
      ],
      "stateMutability": "view",
      "type": "function"
    },
    {
      "inputs": [
        {
          "internalType": "address",
          "name": "_factory",
          "type": "address"
        },
        {
          "internalType": "address[]",
          "name": "_tokens",
          "type": "address[]"
        }
      ],
      "name": "getPairInfo",
      "outputs": [
        {
          "internalType": "uint256[]",
          "name": "",
          "type": "uint256[]"
        }
      ],
      "stateMutability": "view",
      "type": "function"
    },
    {
      "inputs": [
        {
          "internalType": "address",
          "name": "_vault",
          "type": "address"
        },
        {
          "internalType": "address",
          "name": "_account",
          "type": "address"
        },
        {
          "internalType": "address[]",
          "name": "_collateralTokens",
          "type": "address[]"
        },
        {
          "internalType": "address[]",
          "name": "_indexTokens",
          "type": "address[]"
        },
        {
          "internalType": "bool[]",
          "name": "_isLong",
          "type": "bool[]"
        }
      ],
      "name": "getPositions",
      "outputs": [
        {
          "internalType": "uint256[]",
          "name": "",
          "type": "uint256[]"
        }
      ],
      "stateMutability": "view",
      "type": "function"
    },
    {
      "inputs": [
        {
          "internalType": "contract IVaultPriceFeed",
          "name": "_priceFeed",
          "type": "address"
        },
        {
          "internalType": "address[]",
          "name": "_tokens",
          "type": "address[]"
        }
      ],
      "name": "getPrices",
      "outputs": [
        {
          "internalType": "uint256[]",
          "name": "",
          "type": "uint256[]"
        }
      ],
      "stateMutability": "view",
      "type": "function"
    },
    {
      "inputs": [
        {
          "internalType": "address",
          "name": "_account",
          "type": "address"
        },
        {
          "internalType": "address[]",
          "name": "_yieldTrackers",
          "type": "address[]"
        }
      ],
      "name": "getStakingInfo",
      "outputs": [
        {
          "internalType": "uint256[]",
          "name": "",
          "type": "uint256[]"
        }
      ],
      "stateMutability": "view",
      "type": "function"
    },
    {
      "inputs": [
        {
          "internalType": "address",
          "name": "_account",
          "type": "address"
        },
        {
          "internalType": "address[]",
          "name": "_tokens",
          "type": "address[]"
        }
      ],
      "name": "getTokenBalances",
      "outputs": [
        {
          "internalType": "uint256[]",
          "name": "",
          "type": "uint256[]"
        }
      ],
      "stateMutability": "view",
      "type": "function"
    },
    {
      "inputs": [
        {
          "internalType": "address",
          "name": "_account",
          "type": "address"
        },
        {
          "internalType": "address[]",
          "name": "_tokens",
          "type": "address[]"
        }
      ],
      "name": "getTokenBalancesWithSupplies",
      "outputs": [
        {
          "internalType": "uint256[]",
          "name": "",
          "type": "uint256[]"
        }
      ],
      "stateMutability": "view",
      "type": "function"
    },
    {
      "inputs": [
        {
          "internalType": "contract IERC20",
          "name": "_token",
          "type": "address"
        },
        {
          "internalType": "address[]",
          "name": "_excludedAccounts",
          "type": "address[]"
        }
      ],
      "name": "getTokenSupply",
      "outputs": [
        {
          "internalType": "uint256",
          "name": "",
          "type": "uint256"
        }
      ],
      "stateMutability": "view",
      "type": "function"
    },
    {
      "inputs": [
        {
          "internalType": "contract IERC20",
          "name": "_token",
          "type": "address"
        },
        {
          "internalType": "address[]",
          "name": "_accounts",
          "type": "address[]"
        }
      ],
      "name": "getTotalBalance",
      "outputs": [
        {
          "internalType": "uint256",
          "name": "",
          "type": "uint256"
        }
      ],
      "stateMutability": "view",
      "type": "function"
    },
    {
      "inputs": [
        {
          "internalType": "address[]",
          "name": "_yieldTokens",
          "type": "address[]"
        }
      ],
      "name": "getTotalStaked",
      "outputs": [
        {
          "internalType": "uint256[]",
          "name": "",
          "type": "uint256[]"
        }
      ],
      "stateMutability": "view",
      "type": "function"
    },
    {
      "inputs": [
        {
          "internalType": "address",
          "name": "_vault",
          "type": "address"
        },
        {
          "internalType": "address",
          "name": "_weth",
          "type": "address"
        },
        {
          "internalType": "uint256",
          "name": "_usdgAmount",
          "type": "uint256"
        },
        {
          "internalType": "address[]",
          "name": "_tokens",
          "type": "address[]"
        }
      ],
      "name": "getVaultTokenInfo",
      "outputs": [
        {
          "internalType": "uint256[]",
          "name": "",
          "type": "uint256[]"
        }
      ],
      "stateMutability": "view",
      "type": "function"
    },
    {
      "inputs": [
        {
          "internalType": "address",
          "name": "_vault",
          "type": "address"
        },
        {
          "internalType": "address",
          "name": "_weth",
          "type": "address"
        },
        {
          "internalType": "uint256",
          "name": "_usdgAmount",
          "type": "uint256"
        },
        {
          "internalType": "address[]",
          "name": "_tokens",
          "type": "address[]"
        }
      ],
      "name": "getVaultTokenInfoV2",
      "outputs": [
        {
          "internalType": "uint256[]",
          "name": "",
          "type": "uint256[]"
        }
      ],
      "stateMutability": "view",
      "type": "function"
    },
    {
      "inputs": [
        {
          "internalType": "address",
          "name": "_account",
          "type": "address"
        },
        {
          "internalType": "address[]",
          "name": "_vesters",
          "type": "address[]"
        }
      ],
      "name": "getVestingInfo",
      "outputs": [
        {
          "internalType": "uint256[]",
          "name": "",
          "type": "uint256[]"
        }
      ],
      "stateMutability": "view",
      "type": "function"
    },
    {
      "inputs": [],
      "name": "gov",
      "outputs": [
        {
          "internalType": "address",
          "name": "",
          "type": "address"
        }
      ],
      "stateMutability": "view",
      "type": "function"
    },
    {
      "inputs": [],
      "name": "hasMaxGlobalShortSizes",
      "outputs": [
        {
          "internalType": "bool",
          "name": "",
          "type": "bool"
        }
      ],
      "stateMutability": "view",
      "type": "function"
    },
    {
      "inputs": [
        {
          "internalType": "bool",
          "name": "_hasMaxGlobalShortSizes",
          "type": "bool"
        }
      ],
      "name": "setConfig",
      "outputs": [],
      "stateMutability": "nonpayable",
      "type": "function"
    },
    {
      "inputs": [
        {
          "internalType": "address",
          "name": "_gov",
          "type": "address"
        }
      ],
      "name": "setGov",
      "outputs": [],
      "stateMutability": "nonpayable",
      "type": "function"
    }
  ],
  "bytecode": "0x608060405234801561001057600080fd5b50600080546001600160a01b03191633179055615c8e80620000336000396000f3fe608060405234801561001057600080fd5b506004361061018e5760003560e01c8063937a0be8116100de578063c6f1d67611610097578063d802178e11610071578063d802178e14610bc0578063dc383cab14610c71578063f3535e6c14610e2f578063fbdb05ca14610e675761018e565b8063c6f1d67614610b29578063cfad57a214610b45578063d7176ca914610b6b5761018e565b8063937a0be8146108dc57806395082d251461098d57806395a7535a146109955780639b0183c314610a4f578063a4543ead14610a70578063ad7e549714610b215761018e565b80633613d5271161014b5780637b906e93116101255780637b906e93146106a157806386d4d0f514610762578063870d917c146108135780638e83ca321461081b5761018e565b80633613d527146104e5578063440f018c1461059657806348211934146105f05761018e565b8063126082cf1461019357806312d43a51146101ad57806320542568146101d15780632413c8c1146102e25780632ac0184c146103835780632e3e334214610434575b600080fd5b61019b610f18565b60408051918252519081900360200190f35b6101b5610f1e565b604080516001600160a01b039092168252519081900360200190f35b610292600480360360808110156101e757600080fd5b6001600160a01b03823581169260208101359091169160408201359190810190608081016060820135600160201b81111561022157600080fd5b82018360208201111561023357600080fd5b803590602001918460208302840111600160201b8311171561025457600080fd5b919080806020026020016040519081016040528093929190818152602001838360200280828437600092019190915250929550610f2d945050505050565b60408051602080825283518183015283519192839290830191858101910280838360005b838110156102ce5781810151838201526020016102b6565b505050509050019250505060405180910390f35b610292600480360360208110156102f857600080fd5b810190602081018135600160201b81111561031257600080fd5b82018360208201111561032457600080fd5b803590602001918460208302840111600160201b8311171561034557600080fd5b91908080602002602001604051908101604052809392919081815260200183836020028082843760009201919091525092955061163b945050505050565b61019b6004803603604081101561039957600080fd5b6001600160a01b038235169190810190604081016020820135600160201b8111156103c357600080fd5b8201836020820111156103d557600080fd5b803590602001918460208302840111600160201b831117156103f657600080fd5b919080806020026020016040519081016040528093929190818152602001838360200280828437600092019190915250929550611734945050505050565b6102926004803603604081101561044a57600080fd5b6001600160a01b038235169190810190604081016020820135600160201b81111561047457600080fd5b82018360208201111561048657600080fd5b803590602001918460208302840111600160201b831117156104a757600080fd5b91908080602002602001604051908101604052809392919081815260200183836020028082843760009201919091525092955061185f945050505050565b610292600480360360408110156104fb57600080fd5b6001600160a01b038235169190810190604081016020820135600160201b81111561052557600080fd5b82018360208201111561053757600080fd5b803590602001918460208302840111600160201b8311171561055857600080fd5b919080806020026020016040519081016040528093929190818152602001838360200280828437600092019190915250929550611a64945050505050565b6105d2600480360360808110156105ac57600080fd5b506001600160a01b03813581169160208101358216916040820135169060600135611e9e565b60408051938452602084019290925282820152519081900360600190f35b6102926004803603604081101561060657600080fd5b6001600160a01b038235169190810190604081016020820135600160201b81111561063057600080fd5b82018360208201111561064257600080fd5b803590602001918460208302840111600160201b8311171561066357600080fd5b9190808060200260200160405190810160405280939291908181526020018383602002808284376000920191909152509295506124ea945050505050565b610292600480360360808110156106b757600080fd5b6001600160a01b03823581169260208101359091169160408201359190810190608081016060820135600160201b8111156106f157600080fd5b82018360208201111561070357600080fd5b803590602001918460208302840111600160201b8311171561072457600080fd5b91908080602002602001604051908101604052809392919081815260200183836020028082843760009201919091525092955061299e945050505050565b6102926004803603604081101561077857600080fd5b6001600160a01b038235169190810190604081016020820135600160201b8111156107a257600080fd5b8201836020820111156107b457600080fd5b803590602001918460208302840111600160201b831117156107d557600080fd5b9190808060200260200160405190810160405280939291908181526020018383602002808284376000920191909152509295506131cf945050505050565b61019b6132cf565b6102926004803603608081101561083157600080fd5b6001600160a01b03823581169260208101359091169160408201359190810190608081016060820135600160201b81111561086b57600080fd5b82018360208201111561087d57600080fd5b803590602001918460208302840111600160201b8311171561089e57600080fd5b9190808060200260200160405190810160405280939291908181526020018383602002808284376000920191909152509295506132d4945050505050565b610292600480360360408110156108f257600080fd5b6001600160a01b038235169190810190604081016020820135600160201b81111561091c57600080fd5b82018360208201111561092e57600080fd5b803590602001918460208302840111600160201b8311171561094f57600080fd5b919080806020026020016040519081016040528093929190818152602001838360200280828437600092019190915250929550613c51945050505050565b61019b613de6565b610292600480360360608110156109ab57600080fd5b6001600160a01b038235811692602081013590911691810190606081016040820135600160201b8111156109de57600080fd5b8201836020820111156109f057600080fd5b803590602001918460208302840111600160201b83111715610a1157600080fd5b919080806020026020016040519081016040528093929190818152602001838360200280828437600092019190915250929550613df7945050505050565b610a6e60048036036020811015610a6557600080fd5b503515156142c5565b005b61029260048036036040811015610a8657600080fd5b6001600160a01b038235169190810190604081016020820135600160201b811115610ab057600080fd5b820183602082011115610ac257600080fd5b803590602001918460208302840111600160201b83111715610ae357600080fd5b91908080602002602001604051908101604052809392919081815260200183836020028082843760009201919091525092955061433a945050505050565b61019b6145a6565b610b316145ab565b604080519115158252519081900360200190f35b610a6e60048036036020811015610b5b57600080fd5b50356001600160a01b03166145bb565b610ba760048036036080811015610b8157600080fd5b506001600160a01b03813581169160208101358216916040820135169060600135614634565b6040805192835260208301919091528051918290030190f35b61029260048036036040811015610bd657600080fd5b6001600160a01b038235169190810190604081016020820135600160201b811115610c0057600080fd5b820183602082011115610c1257600080fd5b803590602001918460208302840111600160201b83111715610c3357600080fd5b919080806020026020016040519081016040528093929190818152602001838360200280828437600092019190915250929550614dd1945050505050565b610292600480360360a0811015610c8757600080fd5b6001600160a01b038235811692602081013590911691810190606081016040820135600160201b811115610cba57600080fd5b820183602082011115610ccc57600080fd5b803590602001918460208302840111600160201b83111715610ced57600080fd5b9190808060200260200160405190810160405280939291908181526020018383602002808284376000920191909152509295949360208101935035915050600160201b811115610d3c57600080fd5b820183602082011115610d4e57600080fd5b803590602001918460208302840111600160201b83111715610d6f57600080fd5b9190808060200260200160405190810160405280939291908181526020018383602002808284376000920191909152509295949360208101935035915050600160201b811115610dbe57600080fd5b820183602082011115610dd057600080fd5b803590602001918460208302840111600160201b83111715610df157600080fd5b919080806020026020016040519081016040528093929190818152602001838360200280828437600092019190915250929550614f1d945050505050565b61019b60048036036060811015610e4557600080fd5b506001600160a01b038135811691602081013582169160409091013516615383565b61019b60048036036040811015610e7d57600080fd5b6001600160a01b038235169190810190604081016020820135600160201b811115610ea757600080fd5b820183602082011115610eb957600080fd5b803590602001918460208302840111600160201b83111715610eda57600080fd5b91908080602002602001604051908101604052809392919081815260200183836020028082843760009201919091525092955061594b945050505050565b61271081565b6000546001600160a01b031681565b60606000600a905060008690506000816001600160a01b031663741bef1a6040518163ffffffff1660e01b815260040160206040518083038186803b158015610f7557600080fd5b505afa158015610f89573d6000803e3d6000fd5b505050506040513d6020811015610f9f57600080fd5b5051855190915060609084026001600160401b0381118015610fc057600080fd5b50604051908082528060200260200182016040528015610fea578160200160208202803683370190505b50905060005b865181101561162e57600087828151811061100757fe5b6020026020010151905060006001600160a01b0316816001600160a01b0316141561102f5750885b846001600160a01b03166352f55eed826040518263ffffffff1660e01b815260040180826001600160a01b0316815260200191505060206040518083038186803b15801561107c57600080fd5b505afa158015611090573d6000803e3d6000fd5b505050506040513d60208110156110a657600080fd5b5051835184908489029081106110b857fe5b602002602001018181525050846001600160a01b031663c3c7b9e9826040518263ffffffff1660e01b815260040180826001600160a01b0316815260200191505060206040518083038186803b15801561111157600080fd5b505afa158015611125573d6000803e3d6000fd5b505050506040513d602081101561113b57600080fd5b5051835184906001858a020190811061115057fe5b602002602001018181525050846001600160a01b0316631aa4ace5826040518263ffffffff1660e01b815260040180826001600160a01b0316815260200191505060206040518083038186803b1580156111a957600080fd5b505afa1580156111bd573d6000803e3d6000fd5b505050506040513d60208110156111d357600080fd5b5051835184906002858a02019081106111e857fe5b602002602001018181525050846001600160a01b0316632c668ec1828b6040518363ffffffff1660e01b815260040180836001600160a01b031681526020018281526020019250505060206040518083038186803b15801561124957600080fd5b505afa15801561125d573d6000803e3d6000fd5b505050506040513d602081101561127357600080fd5b5051835184906003858a020190811061128857fe5b602002602001018181525050846001600160a01b031663ab2f3ad4826040518263ffffffff1660e01b815260040180826001600160a01b0316815260200191505060206040518083038186803b1580156112e157600080fd5b505afa1580156112f5573d6000803e3d6000fd5b505050506040513d602081101561130b57600080fd5b5051835184906004858a020190811061132057fe5b602002602001018181525050846001600160a01b03166381a612d6826040518263ffffffff1660e01b815260040180826001600160a01b0316815260200191505060206040518083038186803b15801561137957600080fd5b505afa15801561138d573d6000803e3d6000fd5b505050506040513d60208110156113a357600080fd5b5051835184906005858a02019081106113b857fe5b602002602001018181525050846001600160a01b031663e124e6d2826040518263ffffffff1660e01b815260040180826001600160a01b0316815260200191505060206040518083038186803b15801561141157600080fd5b505afa158015611425573d6000803e3d6000fd5b505050506040513d602081101561143b57600080fd5b5051835184906006858a020190811061145057fe5b602002602001018181525050846001600160a01b031663f07456ce826040518263ffffffff1660e01b815260040180826001600160a01b0316815260200191505060206040518083038186803b1580156114a957600080fd5b505afa1580156114bd573d6000803e3d6000fd5b505050506040513d60208110156114d357600080fd5b5051835184906007858a02019081106114e857fe5b602090810291909101810191909152604080516356c8c2c160e01b81526001600160a01b038481166004830152600060248301529151918716926356c8c2c192604480840193829003018186803b15801561154257600080fd5b505afa158015611556573d6000803e3d6000fd5b505050506040513d602081101561156c57600080fd5b5051835184906008858a020190811061158157fe5b602090810291909101810191909152604080516356c8c2c160e01b81526001600160a01b038481166004830152600160248301529151918716926356c8c2c192604480840193829003018186803b1580156115db57600080fd5b505afa1580156115ef573d6000803e3d6000fd5b505050506040513d602081101561160557600080fd5b5051835184906009858a020190811061161a57fe5b602090810291909101015250600101610ff0565b5098975050505050505050565b60608082516001600160401b038111801561165557600080fd5b5060405190808252806020026020018201604052801561167f578160200160208202803683370190505b50905060005b835181101561172d57600084828151811061169c57fe5b60200260200101519050806001600160a01b031663817b1cd26040518163ffffffff1660e01b815260040160206040518083038186803b1580156116df57600080fd5b505afa1580156116f3573d6000803e3d6000fd5b505050506040513d602081101561170957600080fd5b5051835184908490811061171957fe5b602090810291909101015250600101611685565b5092915050565b600080836001600160a01b03166318160ddd6040518163ffffffff1660e01b815260040160206040518083038186803b15801561177057600080fd5b505afa158015611784573d6000803e3d6000fd5b505050506040513d602081101561179a57600080fd5b5051905060005b83518110156118555760008482815181106117b857fe5b602002602001015190506000866001600160a01b03166370a08231836040518263ffffffff1660e01b815260040180826001600160a01b0316815260200191505060206040518083038186803b15801561181157600080fd5b505afa158015611825573d6000803e3d6000fd5b505050506040513d602081101561183b57600080fd5b505190506118498482615a04565b935050506001016117a1565b5090505b92915050565b60606000600290506060818451026001600160401b038111801561188257600080fd5b506040519080825280602002602001820160405280156118ac578160200160208202803683370190505b50905060005b8451811015611a5b5760008582815181106118c957fe5b6020026020010151905060006001600160a01b0316816001600160a01b0316141561193857866001600160a01b031631838584028151811061190757fe5b6020026020010181815250506000838584026001018151811061192657fe5b60200260200101818152505050611a53565b806001600160a01b03166370a08231886040518263ffffffff1660e01b815260040180826001600160a01b0316815260200191505060206040518083038186803b15801561198557600080fd5b505afa158015611999573d6000803e3d6000fd5b505050506040513d60208110156119af57600080fd5b5051835184908487029081106119c157fe5b602002602001018181525050806001600160a01b03166318160ddd6040518163ffffffff1660e01b815260040160206040518083038186803b158015611a0657600080fd5b505afa158015611a1a573d6000803e3d6000fd5b505050506040513d6020811015611a3057600080fd5b505183518490600185880201908110611a4557fe5b602002602001018181525050505b6001016118b2565b50949350505050565b60606000600690506060818451026001600160401b0381118015611a8757600080fd5b50604051908082528060200260200182016040528015611ab1578160200160208202803683370190505b50905060005b8451811015611a5b576000858281518110611ace57fe5b602090810291909101810151604080516317e1d38560e11b81526001600160a01b0380841660048301526001602483018190526044830152600060648301529151929450908a1692632fc3a70a92608480840193829003018186803b158015611b3657600080fd5b505afa158015611b4a573d6000803e3d6000fd5b505050506040513d6020811015611b6057600080fd5b505183518490848702908110611b7257fe5b602090810291909101810191909152604080516317e1d38560e11b81526001600160a01b0384811660048301526000602483018190526001604484015260648301529151918a1692632fc3a70a92608480840193829003018186803b158015611bda57600080fd5b505afa158015611bee573d6000803e3d6000fd5b505050506040513d6020811015611c0457600080fd5b505183518490600185880201908110611c1957fe5b602090810291909101810191909152604080516356c8c2c160e01b81526001600160a01b038481166004830152600160248301529151918a16926356c8c2c192604480840193829003018186803b158015611c7357600080fd5b505afa158015611c87573d6000803e3d6000fd5b505050506040513d6020811015611c9d57600080fd5b505183518490600285880201908110611cb257fe5b602090810291909101810191909152604080516356c8c2c160e01b81526001600160a01b038481166004830152600060248301529151918a16926356c8c2c192604480840193829003018186803b158015611d0c57600080fd5b505afa158015611d20573d6000803e3d6000fd5b505050506040513d6020811015611d3657600080fd5b505183518490600385880201908110611d4b57fe5b602002602001018181525050866001600160a01b0316636ce8a44b826040518263ffffffff1660e01b815260040180826001600160a01b0316815260200191505060206040518083038186803b158015611da457600080fd5b505afa158015611db8573d6000803e3d6000fd5b505050506040513d6020811015611dce57600080fd5b5051611ddb576000611dde565b60015b60ff168385840260040181518110611df257fe5b602002602001018181525050866001600160a01b03166348cac277826040518263ffffffff1660e01b815260040180826001600160a01b0316815260200191505060206040518083038186803b158015611e4b57600080fd5b505afa158015611e5f573d6000803e3d6000fd5b505050506040513d6020811015611e7557600080fd5b505183518490600585880201908110611e8a57fe5b602090810291909101015250600101611ab7565b600080600080876001600160a01b03166381a612d6886040518263ffffffff1660e01b815260040180826001600160a01b0316815260200191505060206040518083038186803b158015611ef157600080fd5b505afa158015611f05573d6000803e3d6000fd5b505050506040513d6020811015611f1b57600080fd5b5051604080516323b95ceb60e21b81526001600160a01b038a811660048301529151929350600092918b1691638ee573ac91602480820192602092909190829003018186803b158015611f6d57600080fd5b505afa158015611f81573d6000803e3d6000fd5b505050506040513d6020811015611f9757600080fd5b505190506000611fbe6c0c9f2c9cd04674edea40000000611fb88986615a46565b90615a9f565b9050611fda600a83900a611fb883670de0b6b3a7640000615a46565b905060008a6001600160a01b03166342b60b038b6040518263ffffffff1660e01b815260040180826001600160a01b0316815260200191505060206040518083038186803b15801561202b57600080fd5b505afa15801561203f573d6000803e3d6000fd5b505050506040513d602081101561205557600080fd5b505180156120d857508a6001600160a01b03166342b60b038a6040518263ffffffff1660e01b815260040180826001600160a01b0316815260200191505060206040518083038186803b1580156120ab57600080fd5b505afa1580156120bf573d6000803e3d6000fd5b505050506040513d60208110156120d557600080fd5b50515b905060008161214b578b6001600160a01b031663a22f23926040518163ffffffff1660e01b815260040160206040518083038186803b15801561211a57600080fd5b505afa15801561212e573d6000803e3d6000fd5b505050506040513d602081101561214457600080fd5b50516121b1565b8b6001600160a01b031663df73a2676040518163ffffffff1660e01b815260040160206040518083038186803b15801561218457600080fd5b505afa158015612198573d6000803e3d6000fd5b505050506040513d60208110156121ae57600080fd5b50515b9050600082612224578c6001600160a01b0316637a210a2b6040518163ffffffff1660e01b815260040160206040518083038186803b1580156121f357600080fd5b505afa158015612207573d6000803e3d6000fd5b505050506040513d602081101561221d57600080fd5b505161228a565b8c6001600160a01b03166310eb56c26040518163ffffffff1660e01b815260040160206040518083038186803b15801561225d57600080fd5b505afa158015612271573d6000803e3d6000fd5b505050506040513d602081101561228757600080fd5b50515b905060008d6001600160a01b0316636abbe0c86040518163ffffffff1660e01b815260040160206040518083038186803b1580156122c757600080fd5b505afa1580156122db573d6000803e3d6000fd5b505050506040513d60208110156122f157600080fd5b81019080805190602001909291905050506001600160a01b031663c7e074c38e87868660016040518663ffffffff1660e01b815260040180866001600160a01b0316815260200185815260200184815260200183815260200182151581526020019550505050505060206040518083038186803b15801561237157600080fd5b505afa158015612385573d6000803e3d6000fd5b505050506040513d602081101561239b57600080fd5b8101908080519060200190929190505050905060008e6001600160a01b0316636abbe0c86040518163ffffffff1660e01b815260040160206040518083038186803b1580156123e957600080fd5b505afa1580156123fd573d6000803e3d6000fd5b505050506040513d602081101561241357600080fd5b81019080805190602001909291905050506001600160a01b031663c7e074c38e88878760006040518663ffffffff1660e01b815260040180866001600160a01b0316815260200185815260200184815260200183815260200182151581526020019550505050505060206040518083038186803b15801561249357600080fd5b505afa1580156124a7573d6000803e3d6000fd5b505050506040513d60208110156124bd57600080fd5b5051905060008183116124d057816124d2565b825b9b509199509750505050505050509450945094915050565b60606000600790506060818451026001600160401b038111801561250d57600080fd5b50604051908082528060200260200182016040528015612537578160200160208202803683370190505b50905060005b8451811015611a5b57600085828151811061255457fe5b60200260200101519050806001600160a01b0316635d50e729886040518263ffffffff1660e01b815260040180826001600160a01b0316815260200191505060206040518083038186803b1580156125ab57600080fd5b505afa1580156125bf573d6000803e3d6000fd5b505050506040513d60208110156125d557600080fd5b5051835184908487029081106125e757fe5b602002602001018181525050806001600160a01b031663d5a73fdd886040518263ffffffff1660e01b815260040180826001600160a01b0316815260200191505060206040518083038186803b15801561264057600080fd5b505afa158015612654573d6000803e3d6000fd5b505050506040513d602081101561266a57600080fd5b50518351849060018588020190811061267f57fe5b60200260200101818152505085828151811061269757fe5b60200260200101516001600160a01b03166370a08231886040518263ffffffff1660e01b815260040180826001600160a01b0316815260200191505060206040518083038186803b1580156126eb57600080fd5b505afa1580156126ff573d6000803e3d6000fd5b505050506040513d602081101561271557600080fd5b50518351849060028588020190811061272a57fe5b602002602001018181525050806001600160a01b03166371417b32886040518263ffffffff1660e01b815260040180826001600160a01b0316815260200191505060206040518083038186803b15801561278357600080fd5b505afa158015612797573d6000803e3d6000fd5b505050506040513d60208110156127ad57600080fd5b5051835184906003858802019081106127c257fe5b602002602001018181525050806001600160a01b031663402914f5886040518263ffffffff1660e01b815260040180826001600160a01b0316815260200191505060206040518083038186803b15801561281b57600080fd5b505afa15801561282f573d6000803e3d6000fd5b505050506040513d602081101561284557600080fd5b50518351849060048588020190811061285a57fe5b602002602001018181525050806001600160a01b03166308f26c76886040518263ffffffff1660e01b815260040180826001600160a01b0316815260200191505060206040518083038186803b1580156128b357600080fd5b505afa1580156128c7573d6000803e3d6000fd5b505050506040513d60208110156128dd57600080fd5b5051835184906005858802019081106128f257fe5b602002602001018181525050806001600160a01b03166345f01ee6886040518263ffffffff1660e01b815260040180826001600160a01b0316815260200191505060206040518083038186803b15801561294b57600080fd5b505afa15801561295f573d6000803e3d6000fd5b505050506040513d602081101561297557600080fd5b50518351849060068588020190811061298a57fe5b60209081029190910101525060010161253d565b60606000600c905060008690506000816001600160a01b031663741bef1a6040518163ffffffff1660e01b815260040160206040518083038186803b1580156129e657600080fd5b505afa1580156129fa573d6000803e3d6000fd5b505050506040513d6020811015612a1057600080fd5b5051855190915060609084026001600160401b0381118015612a3157600080fd5b50604051908082528060200260200182016040528015612a5b578160200160208202803683370190505b50905060005b865181101561162e576000878281518110612a7857fe5b6020026020010151905060006001600160a01b0316816001600160a01b03161415612aa05750885b846001600160a01b03166352f55eed826040518263ffffffff1660e01b815260040180826001600160a01b0316815260200191505060206040518083038186803b158015612aed57600080fd5b505afa158015612b01573d6000803e3d6000fd5b505050506040513d6020811015612b1757600080fd5b505183518490848902908110612b2957fe5b602002602001018181525050846001600160a01b031663c3c7b9e9826040518263ffffffff1660e01b815260040180826001600160a01b0316815260200191505060206040518083038186803b158015612b8257600080fd5b505afa158015612b96573d6000803e3d6000fd5b505050506040513d6020811015612bac57600080fd5b5051835184906001858a0201908110612bc157fe5b602002602001018181525050846001600160a01b0316631aa4ace5826040518263ffffffff1660e01b815260040180826001600160a01b0316815260200191505060206040518083038186803b158015612c1a57600080fd5b505afa158015612c2e573d6000803e3d6000fd5b505050506040513d6020811015612c4457600080fd5b5051835184906002858a0201908110612c5957fe5b602002602001018181525050846001600160a01b0316632c668ec1828b6040518363ffffffff1660e01b815260040180836001600160a01b031681526020018281526020019250505060206040518083038186803b158015612cba57600080fd5b505afa158015612cce573d6000803e3d6000fd5b505050506040513d6020811015612ce457600080fd5b5051835184906003858a0201908110612cf957fe5b602002602001018181525050846001600160a01b031663ab2f3ad4826040518263ffffffff1660e01b815260040180826001600160a01b0316815260200191505060206040518083038186803b158015612d5257600080fd5b505afa158015612d66573d6000803e3d6000fd5b505050506040513d6020811015612d7c57600080fd5b5051835184906004858a0201908110612d9157fe5b602002602001018181525050846001600160a01b0316634a993ee9826040518263ffffffff1660e01b815260040180826001600160a01b0316815260200191505060206040518083038186803b158015612dea57600080fd5b505afa158015612dfe573d6000803e3d6000fd5b505050506040513d6020811015612e1457600080fd5b5051835184906005858a0201908110612e2957fe5b602002602001018181525050846001600160a01b031663ad1e4f8d826040518263ffffffff1660e01b815260040180826001600160a01b0316815260200191505060206040518083038186803b158015612e8257600080fd5b505afa158015612e96573d6000803e3d6000fd5b505050506040513d6020811015612eac57600080fd5b5051835184906006858a0201908110612ec157fe5b602002602001018181525050846001600160a01b03166381a612d6826040518263ffffffff1660e01b815260040180826001600160a01b0316815260200191505060206040518083038186803b158015612f1a57600080fd5b505afa158015612f2e573d6000803e3d6000fd5b505050506040513d6020811015612f4457600080fd5b5051835184906007858a0201908110612f5957fe5b602002602001018181525050846001600160a01b031663e124e6d2826040518263ffffffff1660e01b815260040180826001600160a01b0316815260200191505060206040518083038186803b158015612fb257600080fd5b505afa158015612fc6573d6000803e3d6000fd5b505050506040513d6020811015612fdc57600080fd5b5051835184906008858a0201908110612ff157fe5b602002602001018181525050846001600160a01b031663f07456ce826040518263ffffffff1660e01b815260040180826001600160a01b0316815260200191505060206040518083038186803b15801561304a57600080fd5b505afa15801561305e573d6000803e3d6000fd5b505050506040513d602081101561307457600080fd5b5051835184906009858a020190811061308957fe5b602090810291909101810191909152604080516356c8c2c160e01b81526001600160a01b038481166004830152600060248301529151918716926356c8c2c192604480840193829003018186803b1580156130e357600080fd5b505afa1580156130f7573d6000803e3d6000fd5b505050506040513d602081101561310d57600080fd5b505183518490600a858a020190811061312257fe5b602090810291909101810191909152604080516356c8c2c160e01b81526001600160a01b038481166004830152600160248301529151918716926356c8c2c192604480840193829003018186803b15801561317c57600080fd5b505afa158015613190573d6000803e3d6000fd5b505050506040513d60208110156131a657600080fd5b505183518490600b858a02019081106131bb57fe5b602090810291909101015250600101612a61565b60608082516001600160401b03811180156131e957600080fd5b50604051908082528060200260200182016040528015613213578160200160208202803683370190505b50905060005b835181101561185557846001600160a01b0316631ce9cb8f85838151811061323d57fe5b60200260200101516040518263ffffffff1660e01b815260040180826001600160a01b0316815260200191505060206040518083038186803b15801561328257600080fd5b505afa158015613296573d6000803e3d6000fd5b505050506040513d60208110156132ac57600080fd5b505182518390839081106132bc57fe5b6020908102919091010152600101613219565b601281565b60606000600e905060008690506000816001600160a01b031663741bef1a6040518163ffffffff1660e01b815260040160206040518083038186803b15801561331c57600080fd5b505afa158015613330573d6000803e3d6000fd5b505050506040513d602081101561334657600080fd5b5051855190915060609084026001600160401b038111801561336757600080fd5b50604051908082528060200260200182016040528015613391578160200160208202803683370190505b50905060005b865181101561162e5760008782815181106133ae57fe5b6020026020010151905060006001600160a01b0316816001600160a01b031614156133d65750885b60008054600160a01b900460ff166133ef576000613469565b856001600160a01b0316639698d25a836040518263ffffffff1660e01b815260040180826001600160a01b0316815260200191505060206040518083038186803b15801561343c57600080fd5b505afa158015613450573d6000803e3d6000fd5b505050506040513d602081101561346657600080fd5b50515b9050856001600160a01b03166352f55eed836040518263ffffffff1660e01b815260040180826001600160a01b0316815260200191505060206040518083038186803b1580156134b857600080fd5b505afa1580156134cc573d6000803e3d6000fd5b505050506040513d60208110156134e257600080fd5b505184518590858a029081106134f457fe5b602002602001018181525050856001600160a01b031663c3c7b9e9836040518263ffffffff1660e01b815260040180826001600160a01b0316815260200191505060206040518083038186803b15801561354d57600080fd5b505afa158015613561573d6000803e3d6000fd5b505050506040513d602081101561357757600080fd5b5051845185906001868b020190811061358c57fe5b602002602001018181525050856001600160a01b0316631aa4ace5836040518263ffffffff1660e01b815260040180826001600160a01b0316815260200191505060206040518083038186803b1580156135e557600080fd5b505afa1580156135f9573d6000803e3d6000fd5b505050506040513d602081101561360f57600080fd5b5051845185906002868b020190811061362457fe5b602002602001018181525050856001600160a01b0316632c668ec1838c6040518363ffffffff1660e01b815260040180836001600160a01b031681526020018281526020019250505060206040518083038186803b15801561368557600080fd5b505afa158015613699573d6000803e3d6000fd5b505050506040513d60208110156136af57600080fd5b5051845185906003868b02019081106136c457fe5b602002602001018181525050856001600160a01b031663ab2f3ad4836040518263ffffffff1660e01b815260040180826001600160a01b0316815260200191505060206040518083038186803b15801561371d57600080fd5b505afa158015613731573d6000803e3d6000fd5b505050506040513d602081101561374757600080fd5b5051845185906004868b020190811061375c57fe5b602002602001018181525050856001600160a01b0316634a993ee9836040518263ffffffff1660e01b815260040180826001600160a01b0316815260200191505060206040518083038186803b1580156137b557600080fd5b505afa1580156137c9573d6000803e3d6000fd5b505050506040513d60208110156137df57600080fd5b5051845185906005868b02019081106137f457fe5b602002602001018181525050856001600160a01b031663ad1e4f8d836040518263ffffffff1660e01b815260040180826001600160a01b0316815260200191505060206040518083038186803b15801561384d57600080fd5b505afa158015613861573d6000803e3d6000fd5b505050506040513d602081101561387757600080fd5b5051845185906006868b020190811061388c57fe5b602002602001018181525050856001600160a01b0316638a78daa8836040518263ffffffff1660e01b815260040180826001600160a01b0316815260200191505060206040518083038186803b1580156138e557600080fd5b505afa1580156138f9573d6000803e3d6000fd5b505050506040513d602081101561390f57600080fd5b5051845185906007868b020190811061392457fe5b60200260200101818152505080848885026008018151811061394257fe5b602002602001018181525050856001600160a01b03166381a612d6836040518263ffffffff1660e01b815260040180826001600160a01b0316815260200191505060206040518083038186803b15801561399b57600080fd5b505afa1580156139af573d6000803e3d6000fd5b505050506040513d60208110156139c557600080fd5b5051845185906009868b02019081106139da57fe5b602002602001018181525050856001600160a01b031663e124e6d2836040518263ffffffff1660e01b815260040180826001600160a01b0316815260200191505060206040518083038186803b158015613a3357600080fd5b505afa158015613a47573d6000803e3d6000fd5b505050506040513d6020811015613a5d57600080fd5b505184518590600a868b0201908110613a7257fe5b602002602001018181525050856001600160a01b031663f07456ce836040518263ffffffff1660e01b815260040180826001600160a01b0316815260200191505060206040518083038186803b158015613acb57600080fd5b505afa158015613adf573d6000803e3d6000fd5b505050506040513d6020811015613af557600080fd5b505184518590600b868b0201908110613b0a57fe5b602090810291909101810191909152604080516356c8c2c160e01b81526001600160a01b038581166004830152600060248301529151918816926356c8c2c192604480840193829003018186803b158015613b6457600080fd5b505afa158015613b78573d6000803e3d6000fd5b505050506040513d6020811015613b8e57600080fd5b505184518590600c868b0201908110613ba357fe5b602090810291909101810191909152604080516356c8c2c160e01b81526001600160a01b038581166004830152600160248301529151918816926356c8c2c192604480840193829003018186803b158015613bfd57600080fd5b505afa158015613c11573d6000803e3d6000fd5b505050506040513d6020811015613c2757600080fd5b505184518590600d868b0201908110613c3c57fe5b60209081029190910101525050600101613397565b60606000600290506060818451026001600160401b0381118015613c7457600080fd5b50604051908082528060200260200182016040528015613c9e578160200160208202803683370190505b50905060005b8451811015611a5b576000858281518110613cbb57fe5b60200260200101519050806001600160a01b031663402914f5886040518263ffffffff1660e01b815260040180826001600160a01b0316815260200191505060206040518083038186803b158015613d1257600080fd5b505afa158015613d26573d6000803e3d6000fd5b505050506040513d6020811015613d3c57600080fd5b505183518490848702908110613d4e57fe5b602002602001018181525050806001600160a01b0316632459f51d6040518163ffffffff1660e01b815260040160206040518083038186803b158015613d9357600080fd5b505afa158015613da7573d6000803e3d6000fd5b505050506040513d6020811015613dbd57600080fd5b505183518490600185880201908110613dd257fe5b602090810291909101015250600101613ca4565b6c0c9f2c9cd04674edea4000000081565b60606000600290506060818451026001600160401b0381118015613e1a57600080fd5b50604051908082528060200260200182016040528015613e44578160200160208202803683370190505b5090508560005b85518110156142b7576000868281518110613e6257fe5b6020026020010151905060006001600160a01b0316816001600160a01b03161415613e8a5750865b6000836001600160a01b03166342b60b03836040518263ffffffff1660e01b815260040180826001600160a01b0316815260200191505060206040518083038186803b158015613ed957600080fd5b505afa158015613eed573d6000803e3d6000fd5b505050506040513d6020811015613f0357600080fd5b5051613f7357836001600160a01b031663c4f718bf6040518163ffffffff1660e01b815260040160206040518083038186803b158015613f4257600080fd5b505afa158015613f56573d6000803e3d6000fd5b505050506040513d6020811015613f6c57600080fd5b5051613fd9565b836001600160a01b031663134ca63b6040518163ffffffff1660e01b815260040160206040518083038186803b158015613fac57600080fd5b505afa158015613fc0573d6000803e3d6000fd5b505050506040513d6020811015613fd657600080fd5b50515b90506000846001600160a01b031663c3c7b9e9846040518263ffffffff1660e01b815260040180826001600160a01b0316815260200191505060206040518083038186803b15801561402a57600080fd5b505afa15801561403e573d6000803e3d6000fd5b505050506040513d602081101561405457600080fd5b5051604080516352f55eed60e01b81526001600160a01b0386811660048301529151929350600092918816916352f55eed91602480820192602092909190829003018186803b1580156140a657600080fd5b505afa1580156140ba573d6000803e3d6000fd5b505050506040513d60208110156140d057600080fd5b505190508015614103576140e881611fb88585615a46565b87898702815181106140f657fe5b6020026020010181815250505b6000866001600160a01b031663c65bc7b1866040518263ffffffff1660e01b815260040180826001600160a01b0316815260200191505060206040518083038186803b15801561415257600080fd5b505afa158015614166573d6000803e3d6000fd5b505050506040513d602081101561417c57600080fd5b505111156142a7576000866001600160a01b031663a93acac2866040518263ffffffff1660e01b815260040180826001600160a01b0316815260200191505060206040518083038186803b1580156141d357600080fd5b505afa1580156141e7573d6000803e3d6000fd5b505050506040513d60208110156141fd57600080fd5b50516040805163c65bc7b160e01b81526001600160a01b0388811660048301529151929350600092918a169163c65bc7b191602480820192602092909190829003018186803b15801561424f57600080fd5b505afa158015614263573d6000803e3d6000fd5b505050506040513d602081101561427957600080fd5b505190506142878183615ae1565b898b89026001018151811061429857fe5b60200260200101818152505050505b505060019092019150613e4b9050565b5090925050505b9392505050565b6000546001600160a01b0316331461431c576040805162461bcd60e51b815260206004820152601560248201527423b7bb32b93730b136329d103337b93134b23232b760591b604482015290519081900360640190fd5b60008054911515600160a01b0260ff60a01b19909216919091179055565b80516060906002908190839082900482026001600160401b038111801561436057600080fd5b5060405190808252806020026020018201604052801561438a578160200160208202803683370190505b50905060005b8386518161439a57fe5b0481101561459c57600086858302815181106143b257fe5b60200260200101519050600087868402600101815181106143cf57fe5b602002602001015190506000896001600160a01b031663e6a4390584846040518363ffffffff1660e01b815260040180836001600160a01b03168152602001826001600160a01b031681526020019250505060206040518083038186803b15801561443957600080fd5b505afa15801561444d573d6000803e3d6000fd5b505050506040513d602081101561446357600080fd5b5051604080516370a0823160e01b81526001600160a01b0380841660048301529151929350908516916370a0823191602480820192602092909190829003018186803b1580156144b257600080fd5b505afa1580156144c6573d6000803e3d6000fd5b505050506040513d60208110156144dc57600080fd5b5051855186908689029081106144ee57fe5b602002602001018181525050816001600160a01b03166370a08231826040518263ffffffff1660e01b815260040180826001600160a01b0316815260200191505060206040518083038186803b15801561454757600080fd5b505afa15801561455b573d6000803e3d6000fd5b505050506040513d602081101561457157600080fd5b5051855186906001878a020190811061458657fe5b6020908102919091010152505050600101614390565b5095945050505050565b600981565b600054600160a01b900460ff1681565b6000546001600160a01b03163314614612576040805162461bcd60e51b815260206004820152601560248201527423b7bb32b93730b136329d103337b93134b23232b760591b604482015290519081900360640190fd5b600080546001600160a01b0319166001600160a01b0392909216919091179055565b6000806000866001600160a01b03166381a612d6876040518263ffffffff1660e01b815260040180826001600160a01b0316815260200191505060206040518083038186803b15801561468657600080fd5b505afa15801561469a573d6000803e3d6000fd5b505050506040513d60208110156146b057600080fd5b5051604080516323b95ceb60e21b81526001600160a01b0389811660048301529151929350600092918a1691638ee573ac91602480820192602092909190829003018186803b15801561470257600080fd5b505afa158015614716573d6000803e3d6000fd5b505050506040513d602081101561472c57600080fd5b5051604080516323b95ceb60e21b81526001600160a01b0389811660048301529151929350600092918b1691638ee573ac91602480820192602092909190829003018186803b15801561477e57600080fd5b505afa158015614792573d6000803e3d6000fd5b505050506040513d60208110156147a857600080fd5b505190506000806147ca6c0c9f2c9cd04674edea40000000611fb88a88615a46565b90506147e6600a85900a611fb883670de0b6b3a7640000615a46565b905060008b6001600160a01b03166342b60b038c6040518263ffffffff1660e01b815260040180826001600160a01b0316815260200191505060206040518083038186803b15801561483757600080fd5b505afa15801561484b573d6000803e3d6000fd5b505050506040513d602081101561486157600080fd5b505180156148e457508b6001600160a01b03166342b60b038b6040518263ffffffff1660e01b815260040180826001600160a01b0316815260200191505060206040518083038186803b1580156148b757600080fd5b505afa1580156148cb573d6000803e3d6000fd5b505050506040513d60208110156148e157600080fd5b50515b9050600081614957578c6001600160a01b031663a22f23926040518163ffffffff1660e01b815260040160206040518083038186803b15801561492657600080fd5b505afa15801561493a573d6000803e3d6000fd5b505050506040513d602081101561495057600080fd5b50516149bd565b8c6001600160a01b031663df73a2676040518163ffffffff1660e01b815260040160206040518083038186803b15801561499057600080fd5b505afa1580156149a4573d6000803e3d6000fd5b505050506040513d60208110156149ba57600080fd5b50515b9050600082614a30578d6001600160a01b0316637a210a2b6040518163ffffffff1660e01b815260040160206040518083038186803b1580156149ff57600080fd5b505afa158015614a13573d6000803e3d6000fd5b505050506040513d6020811015614a2957600080fd5b5051614a96565b8d6001600160a01b03166310eb56c26040518163ffffffff1660e01b815260040160206040518083038186803b158015614a6957600080fd5b505afa158015614a7d573d6000803e3d6000fd5b505050506040513d6020811015614a9357600080fd5b50515b905060008e6001600160a01b0316636abbe0c86040518163ffffffff1660e01b815260040160206040518083038186803b158015614ad357600080fd5b505afa158015614ae7573d6000803e3d6000fd5b505050506040513d6020811015614afd57600080fd5b81019080805190602001909291905050506001600160a01b031663c7e074c38f87868660016040518663ffffffff1660e01b815260040180866001600160a01b0316815260200185815260200184815260200183815260200182151581526020019550505050505060206040518083038186803b158015614b7d57600080fd5b505afa158015614b91573d6000803e3d6000fd5b505050506040513d6020811015614ba757600080fd5b8101908080519060200190929190505050905060008f6001600160a01b0316636abbe0c86040518163ffffffff1660e01b815260040160206040518083038186803b158015614bf557600080fd5b505afa158015614c09573d6000803e3d6000fd5b505050506040513d6020811015614c1f57600080fd5b81019080805190602001909291905050506001600160a01b031663c7e074c38f88878760006040518663ffffffff1660e01b815260040180866001600160a01b0316815260200185815260200184815260200183815260200182151581526020019550505050505060206040518083038186803b158015614c9f57600080fd5b505afa158015614cb3573d6000803e3d6000fd5b505050506040513d6020811015614cc957600080fd5b50519050808211614cda5780614cdc565b815b965050505050505060008a6001600160a01b031663e124e6d28a6040518263ffffffff1660e01b815260040180826001600160a01b0316815260200191505060206040518083038186803b158015614d3357600080fd5b505afa158015614d47573d6000803e3d6000fd5b505050506040513d6020811015614d5d57600080fd5b505190506000614d7182611fb88b89615a46565b9050614d9085600a0a611fb886600a0a84615a4690919063ffffffff16565b90506000614dae612710611fb8614da78288615a04565b8590615a46565b90506000614dbc8383615a04565b919e919d50909b505050505050505050505050565b60608082516001600160401b0381118015614deb57600080fd5b50604051908082528060200260200182016040528015614e15578160200160208202803683370190505b50905060005b8351811015611855576000848281518110614e3257fe5b6020026020010151905060006001600160a01b0316816001600160a01b03161415614e8057856001600160a01b031631838381518110614e6e57fe5b60200260200101818152505050614f15565b806001600160a01b03166370a08231876040518263ffffffff1660e01b815260040180826001600160a01b0316815260200191505060206040518083038186803b158015614ecd57600080fd5b505afa158015614ee1573d6000803e3d6000fd5b505050506040513d6020811015614ef757600080fd5b50518351849084908110614f0757fe5b602002602001018181525050505b600101614e1b565b60608060098551026001600160401b0381118015614f3a57600080fd5b50604051908082528060200260200182016040528015614f64578160200160208202803683370190505b50905060005b85518110156153785760008060008060008060008e6001600160a01b0316634a3f088d8f8f8b81518110614f9a57fe5b60200260200101518f8c81518110614fae57fe5b60200260200101518f8d81518110614fc257fe5b60200260200101516040518563ffffffff1660e01b815260040180856001600160a01b03168152602001846001600160a01b03168152602001836001600160a01b0316815260200182151581526020019450505050506101006040518083038186803b15801561503157600080fd5b505afa158015615045573d6000803e3d6000fd5b505050506040513d61010081101561505c57600080fd5b50805160208201516040830151606084015160a085015160c086015160e0909601518f51959d50939b509199509750955091935090915087908a9060098b029081106150a457fe5b602002602001018181525050858960098a02600101815181106150c357fe5b602002602001018181525050848960098a02600201815181106150e257fe5b602002602001018181525050838960098a026003018151811061510157fe5b6020026020010181815250508161511957600061511c565b60015b60ff168960098a026004018151811061513157fe5b602002602001018181525050828960098a026005018151811061515057fe5b602002602001018181525050808960098a026006018151811061516f57fe5b60200260200101818152505050505050505050600082600983028151811061519357fe5b6020026020010151905060008360098402600201815181106151b157fe5b6020026020010151905060008460098502600601815181106151cf57fe5b60200260200101519050600082111561536d576000808c6001600160a01b0316636abbe0c86040518163ffffffff1660e01b815260040160206040518083038186803b15801561521e57600080fd5b505afa158015615232573d6000803e3d6000fd5b505050506040513d602081101561524857600080fd5b50518a516001600160a01b0390911690635c07eaab908c908990811061526a57fe5b602002602001015187878d8b8151811061528057fe5b6020026020010151886040518663ffffffff1660e01b815260040180866001600160a01b03168152602001858152602001848152602001831515815260200182815260200195505050505050604080518083038186803b1580156152e357600080fd5b505afa1580156152f7573d6000803e3d6000fd5b505050506040513d604081101561530d57600080fd5b50805160209091015190925090508161532757600061532a565b60015b60ff1687600988026007018151811061533f57fe5b6020026020010181815250508087600988026008018151811061535e57fe5b60200260200101818152505050505b505050600101614f6a565b509695505050505050565b600080846001600160a01b03166381a612d6856040518263ffffffff1660e01b815260040180826001600160a01b0316815260200191505060206040518083038186803b1580156153d357600080fd5b505afa1580156153e7573d6000803e3d6000fd5b505050506040513d60208110156153fd57600080fd5b505160408051637092736960e11b81526001600160a01b03868116600483015291519293506000929188169163e124e6d291602480820192602092909190829003018186803b15801561544f57600080fd5b505afa158015615463573d6000803e3d6000fd5b505050506040513d602081101561547957600080fd5b5051604080516323b95ceb60e21b81526001600160a01b038881166004830152915192935060009291891691638ee573ac91602480820192602092909190829003018186803b1580156154cb57600080fd5b505afa1580156154df573d6000803e3d6000fd5b505050506040513d60208110156154f557600080fd5b5051604080516323b95ceb60e21b81526001600160a01b0388811660048301529151929350600092918a1691638ee573ac91602480820192602092909190829003018186803b15801561554757600080fd5b505afa15801561555b573d6000803e3d6000fd5b505050506040513d602081101561557157600080fd5b5051604080516352f55eed60e01b81526001600160a01b038981166004830152915192935060009283928c16916352f55eed916024808301926020929190829003018186803b1580156155c357600080fd5b505afa1580156155d7573d6000803e3d6000fd5b505050506040513d60208110156155ed57600080fd5b50516040805163c3c7b9e960e01b81526001600160a01b038b811660048301529151929350600092918d169163c3c7b9e991602480820192602092909190829003018186803b15801561563f57600080fd5b505afa158015615653573d6000803e3d6000fd5b505050506040513d602081101561566957600080fd5b505160408051634a993ee960e01b81526001600160a01b038c811660048301529151929350600092918e1691634a993ee991602480820192602092909190829003018186803b1580156156bb57600080fd5b505afa1580156156cf573d6000803e3d6000fd5b505050506040513d60208110156156e557600080fd5b5051905060008183116156f857816156fa565b825b905083811061571557600099505050505050505050506142be565b60006157218583615a04565b905061574e87600a0a611fb88a600a0a6157488e611fb88f88615a4690919063ffffffff16565b90615a46565b955050505050506000896001600160a01b031663ad1e4f8d8a6040518263ffffffff1660e01b815260040180826001600160a01b0316815260200191505060206040518083038186803b1580156157a457600080fd5b505afa1580156157b8573d6000803e3d6000fd5b505050506040513d60208110156157ce57600080fd5b50519050801561162e57896001600160a01b0316631aa4ace58a6040518263ffffffff1660e01b815260040180826001600160a01b0316815260200191505060206040518083038186803b15801561582557600080fd5b505afa158015615839573d6000803e3d6000fd5b505050506040513d602081101561584f57600080fd5b505181101561586757600096505050505050506142be565b60006158ec8b6001600160a01b0316631aa4ace58c6040518263ffffffff1660e01b815260040180826001600160a01b0316815260200191505060206040518083038186803b1580156158b957600080fd5b505afa1580156158cd573d6000803e3d6000fd5b505050506040513d60208110156158e357600080fd5b50518390615a04565b9050615908670de0b6b3a7640000611fb883600a89900a615a46565b905061592587611fb8836c0c9f2c9cd04674edea40000000615a46565b90508083111561593d5796506142be95505050505050565b505098975050505050505050565b600080805b835181101561185557600084828151811061596757fe5b602002602001015190506000866001600160a01b03166370a08231836040518263ffffffff1660e01b815260040180826001600160a01b0316815260200191505060206040518083038186803b1580156159c057600080fd5b505afa1580156159d4573d6000803e3d6000fd5b505050506040513d60208110156159ea57600080fd5b505190506159f88482615ae1565b93505050600101615950565b60006142be83836040518060400160405280601e81526020017f536166654d6174683a207375627472616374696f6e206f766572666c6f770000815250615b3b565b600082615a5557506000611859565b82820282848281615a6257fe5b04146142be5760405162461bcd60e51b8152600401808060200182810382526021815260200180615c386021913960400191505060405180910390fd5b60006142be83836040518060400160405280601a81526020017f536166654d6174683a206469766973696f6e206279207a65726f000000000000815250615bd2565b6000828201838110156142be576040805162461bcd60e51b815260206004820152601b60248201527f536166654d6174683a206164646974696f6e206f766572666c6f770000000000604482015290519081900360640190fd5b60008184841115615bca5760405162461bcd60e51b81526004018080602001828103825283818151815260200191508051906020019080838360005b83811015615b8f578181015183820152602001615b77565b50505050905090810190601f168015615bbc5780820380516001836020036101000a031916815260200191505b509250505060405180910390fd5b505050900390565b60008183615c215760405162461bcd60e51b8152602060048201818152835160248401528351909283926044909101919085019080838360008315615b8f578181015183820152602001615b77565b506000838581615c2d57fe5b049594505050505056fe536166654d6174683a206d756c7469706c69636174696f6e206f766572666c6f77a264697066735822122034e22bf1bf01b5df04964228df49d9a594315623555a953b5c15c35dd88ad63764736f6c634300060c0033",
  "linkReferences": {},
  "deployedLinkReferences": {}
}