{
  "_format": "hh-sol-artifact-1",
  "contractName": "VaultUtils",
  "sourceName": "contracts/core/VaultUtils.sol",
  "abi": [
    {
      "inputs": [
        {
          "internalType": "contract IVault",
          "name": "_vault",
          "type": "address"
        }
      ],
      "stateMutability": "nonpayable",
      "type": "constructor"
    },
    {
      "inputs": [],
      "name": "BASIS_POINTS_DIVISOR",
      "outputs": [
        {
          "internalType": "uint256",
          "name": "",
          "type": "uint256"
        }
      ],
      "stateMutability": "view",
      "type": "function"
    },
    {
      "inputs": [],
      "name": "FUNDING_RATE_PRECISION",
      "outputs": [
        {
          "internalType": "uint256",
          "name": "",
          "type": "uint256"
        }
      ],
      "stateMutability": "view",
      "type": "function"
    },
    {
      "inputs": [],
      "name": "MAX_WITHDRAWAL_COOLDOWN_DURATION",
      "outputs": [
        {
          "internalType": "uint256",
          "name": "",
          "type": "uint256"
        }
      ],
      "stateMutability": "view",
      "type": "function"
    },
    {
      "inputs": [],
      "name": "MIN_LEVERAGE_CAP",
      "outputs": [
        {
          "internalType": "uint256",
          "name": "",
          "type": "uint256"
        }
      ],
      "stateMutability": "view",
      "type": "function"
    },
    {
      "inputs": [
        {
          "internalType": "address",
          "name": "_token",
          "type": "address"
        },
        {
          "internalType": "uint256",
          "name": "_usdgAmount",
          "type": "uint256"
        }
      ],
      "name": "getBuyUsdgFeeBasisPoints",
      "outputs": [
        {
          "internalType": "uint256",
          "name": "",
          "type": "uint256"
        }
      ],
      "stateMutability": "view",
      "type": "function"
    },
    {
      "inputs": [
        {
          "internalType": "address",
          "name": "_indexToken",
          "type": "address"
        },
        {
          "internalType": "uint256",
          "name": "_size",
          "type": "uint256"
        },
        {
          "internalType": "uint256",
          "name": "_averagePrice",
          "type": "uint256"
        },
        {
          "internalType": "bool",
          "name": "_isLong",
          "type": "bool"
        },
        {
          "internalType": "uint256",
          "name": "_lastIncreasedTime",
          "type": "uint256"
        }
      ],
      "name": "getDelta",
      "outputs": [
        {
          "internalType": "bool",
          "name": "",
          "type": "bool"
        },
        {
          "internalType": "uint256",
          "name": "",
          "type": "uint256"
        }
      ],
      "stateMutability": "view",
      "type": "function"
    },
    {
      "inputs": [
        {
          "internalType": "address",
          "name": "_collateralToken",
          "type": "address"
        },
        {
          "internalType": "address",
          "name": "",
          "type": "address"
        },
        {
          "internalType": "bool",
          "name": "",
          "type": "bool"
        }
      ],
      "name": "getEntryFundingRate",
      "outputs": [
        {
          "internalType": "uint256",
          "name": "",
          "type": "uint256"
        }
      ],
      "stateMutability": "view",
      "type": "function"
    },
    {
      "inputs": [
        {
          "internalType": "address",
          "name": "_token",
          "type": "address"
        },
        {
          "internalType": "uint256",
          "name": "_usdgDelta",
          "type": "uint256"
        },
        {
          "internalType": "uint256",
          "name": "_feeBasisPoints",
          "type": "uint256"
        },
        {
          "internalType": "uint256",
          "name": "_taxBasisPoints",
          "type": "uint256"
        },
        {
          "internalType": "bool",
          "name": "_increment",
          "type": "bool"
        }
      ],
      "name": "getFeeBasisPoints",
      "outputs": [
        {
          "internalType": "uint256",
          "name": "",
          "type": "uint256"
        }
      ],
      "stateMutability": "view",
      "type": "function"
    },
    {
      "inputs": [
        {
          "internalType": "address",
          "name": "",
          "type": "address"
        },
        {
          "internalType": "address",
          "name": "_collateralToken",
          "type": "address"
        },
        {
          "internalType": "address",
          "name": "",
          "type": "address"
        },
        {
          "internalType": "bool",
          "name": "",
          "type": "bool"
        },
        {
          "internalType": "uint256",
          "name": "_size",
          "type": "uint256"
        },
        {
          "internalType": "uint256",
          "name": "_entryFundingRate",
          "type": "uint256"
        }
      ],
      "name": "getFundingFee",
      "outputs": [
        {
          "internalType": "uint256",
          "name": "",
          "type": "uint256"
        }
      ],
      "stateMutability": "view",
      "type": "function"
    },
    {
      "inputs": [
        {
          "internalType": "address",
          "name": "_token",
          "type": "address"
        }
      ],
      "name": "getGlobalShortDelta",
      "outputs": [
        {
          "internalType": "bool",
          "name": "",
          "type": "bool"
        },
        {
          "internalType": "uint256",
          "name": "",
          "type": "uint256"
        }
      ],
      "stateMutability": "view",
      "type": "function"
    },
    {
      "inputs": [
        {
          "internalType": "address",
          "name": "_account",
          "type": "address"
        },
        {
          "internalType": "address",
          "name": "_collateralToken",
          "type": "address"
        },
        {
          "internalType": "address",
          "name": "_indexToken",
          "type": "address"
        },
        {
          "internalType": "bool",
          "name": "_isLong",
          "type": "bool"
        }
      ],
      "name": "getPositionDelta",
      "outputs": [
        {
          "internalType": "bool",
          "name": "",
          "type": "bool"
        },
        {
          "internalType": "uint256",
          "name": "",
          "type": "uint256"
        }
      ],
      "stateMutability": "view",
      "type": "function"
    },
    {
      "inputs": [
        {
          "internalType": "address",
          "name": "",
          "type": "address"
        },
        {
          "internalType": "address",
          "name": "",
          "type": "address"
        },
        {
          "internalType": "address",
          "name": "",
          "type": "address"
        },
        {
          "internalType": "bool",
          "name": "",
          "type": "bool"
        },
        {
          "internalType": "uint256",
          "name": "_sizeDelta",
          "type": "uint256"
        }
      ],
      "name": "getPositionFee",
      "outputs": [
        {
          "internalType": "uint256",
          "name": "",
          "type": "uint256"
        }
      ],
      "stateMutability": "view",
      "type": "function"
    },
    {
      "inputs": [
        {
          "internalType": "address",
          "name": "_account",
          "type": "address"
        },
        {
          "internalType": "address",
          "name": "_collateralToken",
          "type": "address"
        },
        {
          "internalType": "address",
          "name": "_indexToken",
          "type": "address"
        },
        {
          "internalType": "bool",
          "name": "_isLong",
          "type": "bool"
        }
      ],
      "name": "getPositionLeverage",
      "outputs": [
        {
          "internalType": "uint256",
          "name": "",
          "type": "uint256"
        }
      ],
      "stateMutability": "view",
      "type": "function"
    },
    {
      "inputs": [
        {
          "internalType": "address",
          "name": "_token",
          "type": "address"
        }
      ],
      "name": "getRedemptionCollateral",
      "outputs": [
        {
          "internalType": "uint256",
          "name": "",
          "type": "uint256"
        }
      ],
      "stateMutability": "view",
      "type": "function"
    },
    {
      "inputs": [
        {
          "internalType": "address",
          "name": "_token",
          "type": "address"
        }
      ],
      "name": "getRedemptionCollateralUsd",
      "outputs": [
        {
          "internalType": "uint256",
          "name": "",
          "type": "uint256"
        }
      ],
      "stateMutability": "view",
      "type": "function"
    },
    {
      "inputs": [
        {
          "internalType": "address",
          "name": "_token",
          "type": "address"
        },
        {
          "internalType": "uint256",
          "name": "_usdgAmount",
          "type": "uint256"
        }
      ],
      "name": "getSellUsdgFeeBasisPoints",
      "outputs": [
        {
          "internalType": "uint256",
          "name": "",
          "type": "uint256"
        }
      ],
      "stateMutability": "view",
      "type": "function"
    },
    {
      "inputs": [
        {
          "internalType": "address",
          "name": "_tokenIn",
          "type": "address"
        },
        {
          "internalType": "address",
          "name": "_tokenOut",
          "type": "address"
        },
        {
          "internalType": "uint256",
          "name": "_usdgAmount",
          "type": "uint256"
        }
      ],
      "name": "getSwapFeeBasisPoints",
      "outputs": [
        {
          "internalType": "uint256",
          "name": "",
          "type": "uint256"
        }
      ],
      "stateMutability": "view",
      "type": "function"
    },
    {
      "inputs": [
        {
          "internalType": "address",
          "name": "_token",
          "type": "address"
        }
      ],
      "name": "getTargetUsdgAmount",
      "outputs": [
        {
          "internalType": "uint256",
          "name": "",
          "type": "uint256"
        }
      ],
      "stateMutability": "view",
      "type": "function"
    },
    {
      "inputs": [
        {
          "internalType": "address",
          "name": "_token",
          "type": "address"
        }
      ],
      "name": "getUtilisation",
      "outputs": [
        {
          "internalType": "uint256",
          "name": "",
          "type": "uint256"
        }
      ],
      "stateMutability": "view",
      "type": "function"
    },
    {
      "inputs": [],
      "name": "gov",
      "outputs": [
        {
          "internalType": "address",
          "name": "",
          "type": "address"
        }
      ],
      "stateMutability": "view",
      "type": "function"
    },
    {
      "inputs": [],
      "name": "minLeverage",
      "outputs": [
        {
          "internalType": "uint256",
          "name": "",
          "type": "uint256"
        }
      ],
      "stateMutability": "view",
      "type": "function"
    },
    {
      "inputs": [
        {
          "internalType": "address",
          "name": "_gov",
          "type": "address"
        }
      ],
      "name": "setGov",
      "outputs": [],
      "stateMutability": "nonpayable",
      "type": "function"
    },
    {
      "inputs": [
        {
          "internalType": "uint256",
          "name": "_minLeverage",
          "type": "uint256"
        }
      ],
      "name": "setMinLeverage",
      "outputs": [],
      "stateMutability": "nonpayable",
      "type": "function"
    },
    {
      "inputs": [
        {
          "internalType": "uint256",
          "name": "_withdrawalCooldownDuration",
          "type": "uint256"
        }
      ],
      "name": "setWithdrawalCooldownDuration",
      "outputs": [],
      "stateMutability": "nonpayable",
      "type": "function"
    },
    {
      "inputs": [
        {
          "internalType": "address",
          "name": "",
          "type": "address"
        },
        {
          "internalType": "address",
          "name": "",
          "type": "address"
        }
      ],
      "name": "updateCumulativeFundingRate",
      "outputs": [
        {
          "internalType": "bool",
          "name": "",
          "type": "bool"
        }
      ],
      "stateMutability": "nonpayable",
      "type": "function"
    },
    {
      "inputs": [
        {
          "internalType": "address",
          "name": "_account",
          "type": "address"
        },
        {
          "internalType": "address",
          "name": "_collateralToken",
          "type": "address"
        },
        {
          "internalType": "address",
          "name": "_indexToken",
          "type": "address"
        },
        {
          "internalType": "uint256",
          "name": "_collateralDelta",
          "type": "uint256"
        },
        {
          "internalType": "uint256",
          "name": "_sizeDelta",
          "type": "uint256"
        },
        {
          "internalType": "bool",
          "name": "_isLong",
          "type": "bool"
        },
        {
          "internalType": "address",
          "name": "",
          "type": "address"
        }
      ],
      "name": "validateDecreasePosition",
      "outputs": [],
      "stateMutability": "view",
      "type": "function"
    },
    {
      "inputs": [
        {
          "internalType": "address",
          "name": "_account",
          "type": "address"
        },
        {
          "internalType": "address",
          "name": "_collateralToken",
          "type": "address"
        },
        {
          "internalType": "address",
          "name": "_indexToken",
          "type": "address"
        },
        {
          "internalType": "uint256",
          "name": "_sizeDelta",
          "type": "uint256"
        },
        {
          "internalType": "bool",
          "name": "_isLong",
          "type": "bool"
        }
      ],
      "name": "validateIncreasePosition",
      "outputs": [],
      "stateMutability": "view",
      "type": "function"
    },
    {
      "inputs": [
        {
          "internalType": "address",
          "name": "_account",
          "type": "address"
        },
        {
          "internalType": "address",
          "name": "_collateralToken",
          "type": "address"
        },
        {
          "internalType": "address",
          "name": "_indexToken",
          "type": "address"
        },
        {
          "internalType": "bool",
          "name": "_isLong",
          "type": "bool"
        },
        {
          "internalType": "bool",
          "name": "_raise",
          "type": "bool"
        }
      ],
      "name": "validateLiquidation",
      "outputs": [
        {
          "internalType": "uint256",
          "name": "",
          "type": "uint256"
        },
        {
          "internalType": "uint256",
          "name": "",
          "type": "uint256"
        }
      ],
      "stateMutability": "view",
      "type": "function"
    },
    {
      "inputs": [],
      "name": "vault",
      "outputs": [
        {
          "internalType": "contract IVault",
          "name": "",
          "type": "address"
        }
      ],
      "stateMutability": "view",
      "type": "function"
    },
    {
      "inputs": [],
      "name": "withdrawalCooldownDuration",
      "outputs": [
        {
          "internalType": "uint256",
          "name": "",
          "type": "uint256"
        }
      ],
      "stateMutability": "view",
      "type": "function"
    }
  ],
  "bytecode": "0x608060405260006002556161a860035534801561001b57600080fd5b50604051612b60380380612b608339818101604052602081101561003e57600080fd5b5051600080546001600160a01b03199081163317909155600180546001600160a01b0390931692909116919091179055612ae38061007d6000396000f3fe608060405234801561001057600080fd5b50600436106101da5760003560e01c80639d5c28fa11610104578063d54d5a9f116100a2578063f251ec6111610071578063f251ec611461067b578063fbfa77cf14610683578063fbfded6d1461068b578063fdaf6ac3146106cd576101da565b8063d54d5a9f14610570578063da133816146105cf578063da76524c14610605578063eb0835bf1461064f576101da565b8063b1cc53ab116100de578063b1cc53ab146104ac578063b364accb146104e4578063c7e074c31461050a578063cfad57a21461054a576101da565b80639d5c28fa14610425578063a548929714610469578063b136ca4914610486576101da565b80634adeddc61161017c57806370c349f81161014b57806370c349f8146103a25780637c549291146103aa57806381d11a23146103b25780638b71a7f814610408576101da565b80634adeddc6146102f057806351723e821461031c5780635c07eaab1461035a5780636be6026b1461039a576101da565b806320f6f76f116101b857806320f6f76f1461024357806329ff96151461024b5780633a05dcc11461027157806345a6f37014610297576101da565b806304fef1db146101df578063126082cf1461021757806312d43a511461021f575b600080fd5b610205600480360360208110156101f557600080fd5b50356001600160a01b0316610711565b60408051918252519081900360200190f35b61020561083a565b610227610840565b604080516001600160a01b039092168252519081900360200190f35b61020561084f565b6102056004803603602081101561026157600080fd5b50356001600160a01b0316610855565b6102056004803603602081101561028757600080fd5b50356001600160a01b03166108e9565b6102d5600480360360808110156102ad57600080fd5b506001600160a01b038135811691602081013582169160408201351690606001351515610aec565b60408051921515835260208301919091528051918290030190f35b6102056004803603604081101561030657600080fd5b506001600160a01b038135169060200135610bbc565b6102056004803603608081101561033257600080fd5b506001600160a01b038135811691602081013582169160408201351690606001351515610cbe565b6102d5600480360360a081101561037057600080fd5b506001600160a01b0381351690602081013590604081013590606081013515159060800135610d88565b61020561105e565b610205611065565b61020561106c565b610406600480360360e08110156103c857600080fd5b506001600160a01b0381358116916020810135821691604082013581169160608101359160808201359160a081013515159160c09091013516611073565b005b6104066004803603602081101561041e57600080fd5b50356111c5565b610406600480360360a081101561043b57600080fd5b506001600160a01b038135811691602081013582169160408201351690606081013590608001351515611263565b6104066004803603602081101561047f57600080fd5b50356114b9565b6102056004803603602081101561049c57600080fd5b50356001600160a01b0316611557565b610205600480360360608110156104c257600080fd5b506001600160a01b038135811691602081013590911690604001351515611863565b6102d5600480360360208110156104fa57600080fd5b50356001600160a01b03166118e8565b610205600480360360a081101561052057600080fd5b506001600160a01b0381351690602081013590604081013590606081013590608001351515611abf565b6104066004803603602081101561056057600080fd5b50356001600160a01b0316611cdb565b6105b6600480360360a081101561058657600080fd5b506001600160a01b0381358116916020810135821691604082013516906060810135151590608001351515611d54565b6040805192835260208301919091528051918290030190f35b610205600480360360608110156105e557600080fd5b506001600160a01b03813581169160208101359091169060400135612097565b610205600480360360c081101561061b57600080fd5b506001600160a01b038135811691602081013582169160408201351690606081013515159060808101359060a001356123db565b6102056004803603604081101561066557600080fd5b506001600160a01b0381351690602001356124a1565b61020561259a565b6102276125a0565b6106b9600480360360408110156106a157600080fd5b506001600160a01b03813581169160200135166125af565b604080519115158252519081900360200190f35b610205600480360360a08110156106e357600080fd5b506001600160a01b0381358116916020810135821691604082013516906060810135151590608001356125b7565b600154604080516352f55eed60e01b81526001600160a01b0384811660048301529151600093849316916352f55eed916024808301926020929190829003018186803b15801561076057600080fd5b505afa158015610774573d6000803e3d6000fd5b505050506040513d602081101561078a57600080fd5b505190508061079d576000915050610835565b6001546040805163c3c7b9e960e01b81526001600160a01b038681166004830152915161083193859361082b93620f424093919092169163c3c7b9e9916024808301926020929190829003018186803b1580156107f957600080fd5b505afa15801561080d573d6000803e3d6000fd5b505050506040513d602081101561082357600080fd5b50519061266a565b906126c3565b9150505b919050565b61271081565b6000546001600160a01b031681565b60035481565b6001546000906001600160a01b0316630a48d5a98361087381611557565b6040518363ffffffff1660e01b815260040180836001600160a01b031681526020018281526020019250505060206040518083038186803b1580156108b757600080fd5b505afa1580156108cb573d6000803e3d6000fd5b505050506040513d60208110156108e157600080fd5b505192915050565b600080600160009054906101000a90046001600160a01b03166001600160a01b031663f5b91b7b6040518163ffffffff1660e01b815260040160206040518083038186803b15801561093a57600080fd5b505afa15801561094e573d6000803e3d6000fd5b505050506040513d602081101561096457600080fd5b5051604080516318160ddd60e01b815290516001600160a01b03909216916318160ddd91600480820192602092909190829003018186803b1580156109a857600080fd5b505afa1580156109bc573d6000803e3d6000fd5b505050506040513d60208110156109d257600080fd5b50519050806109e5576000915050610835565b60015460408051632acbceb560e21b81526001600160a01b0386811660048301529151600093929092169163ab2f3ad491602480820192602092909190829003018186803b158015610a3657600080fd5b505afa158015610a4a573d6000803e3d6000fd5b505050506040513d6020811015610a6057600080fd5b505160015460408051633723d7eb60e21b81529051929350610ae4926001600160a01b039092169163dc8f5fac91600480820192602092909190829003018186803b158015610aae57600080fd5b505afa158015610ac2573d6000803e3d6000fd5b505050506040513d6020811015610ad857600080fd5b505161082b838561266a565b949350505050565b60015460408051634a3f088d60e01b81526001600160a01b038781166004830152868116602483015285811660448301528415156064830152915160009384938493849384939290921691634a3f088d9160848082019261010092909190829003018186803b158015610b5e57600080fd5b505afa158015610b72573d6000803e3d6000fd5b505050506040513d610100811015610b8957600080fd5b508051604082015160e0909201519094509092509050610bac8784848985610d88565b9450945050505094509492505050565b6000610cb58383600160009054906101000a90046001600160a01b03166001600160a01b0316634d47b3046040518163ffffffff1660e01b815260040160206040518083038186803b158015610c1157600080fd5b505afa158015610c25573d6000803e3d6000fd5b505050506040513d6020811015610c3b57600080fd5b505160015460408051637a210a2b60e01b815290516001600160a01b0390921691637a210a2b91600480820192602092909190829003018186803b158015610c8257600080fd5b505afa158015610c96573d6000803e3d6000fd5b505050506040513d6020811015610cac57600080fd5b50516001611abf565b90505b92915050565b60015460408051634a3f088d60e01b81526001600160a01b038781166004830152868116602483015285811660448301528415156064830152915160009384938493911691634a3f088d9160848082019261010092909190829003018186803b158015610d2a57600080fd5b505afa158015610d3e573d6000803e3d6000fd5b505050506040513d610100811015610d5557600080fd5b508051602090910151909250905080610d6d57600080fd5b610d7d8161082b8461271061266a565b979650505050505050565b60008060008511610dc5576040805162461bcd60e51b8152602060048201526002602482015261066760f31b604482015290519081900360640190fd5b600084610e4a5760015460408051637092736960e11b81526001600160a01b038b811660048301529151919092169163e124e6d2916024808301926020929190829003018186803b158015610e1957600080fd5b505afa158015610e2d573d6000803e3d6000fd5b505050506040513d6020811015610e4357600080fd5b5051610ec4565b600154604080516340d3096b60e11b81526001600160a01b038b81166004830152915191909216916381a612d6916024808301926020929190829003018186803b158015610e9757600080fd5b505afa158015610eab573d6000803e3d6000fd5b505050506040513d6020811015610ec157600080fd5b50515b90506000818711610ede57610ed98288612705565b610ee8565b610ee88783612705565b90506000610efa8861082b8b8561266a565b905060008715610f0d5750878311610f12565b508288115b6000610f98600160009054906101000a90046001600160a01b03166001600160a01b031663d9ac42256040518163ffffffff1660e01b815260040160206040518083038186803b158015610f6557600080fd5b505afa158015610f79573d6000803e3d6000fd5b505050506040513d6020811015610f8f57600080fd5b50518990612747565b421161101c57600154604080516388b1fbdf60e01b81526001600160a01b038f81166004830152915191909216916388b1fbdf916024808301926020929190829003018186803b158015610feb57600080fd5b505afa158015610fff573d6000803e3d6000fd5b505050506040513d602081101561101557600080fd5b505161101f565b60005b905081801561104257506110338b8261266a565b61103f8461271061266a565b11155b1561104c57600092505b509450925050505b9550959350505050565b620f424081565b62278d0081565b620186a081565b61107b6129a9565b611087888888866127a1565b80519091501580159061109a5750805184105b156111bb576000426002548360c001510111905060006110d1836020015161082b612710866000015161266a90919063ffffffff16565b83519091506000906110e39088612705565b905060006110fe89866020015161270590919063ffffffff16565b905060006111128261082b8561270f61266a565b905060035481101561116b576040805162461bcd60e51b815260206004820152601f60248201527f5661756c745574696c733a206c6576657261676520697320746f6f206c6f7700604482015290519081900360640190fd5b8381118580156111785750805b156111b45760405162461bcd60e51b815260040180806020018281038252602c815260200180612a3c602c913960400191505060405180910390fd5b5050505050505b5050505050505050565b6000546001600160a01b0316331461121c576040805162461bcd60e51b815260206004820152601560248201527423b7bb32b93730b136329d103337b93134b23232b760591b604482015290519081900360640190fd5b62278d0081111561125e5760405162461bcd60e51b815260040180806020018281038252602c8152602001806129e7602c913960400191505060405180910390fd5b600255565b61126b6129a9565b611277868686856127a1565b6001546040805163523fba7f60e01b81526001600160a01b0389811660048301529151939450600093919092169163523fba7f916024808301926020929190829003018186803b1580156112ca57600080fd5b505afa1580156112de573d6000803e3d6000fd5b505050506040513d60208110156112f457600080fd5b5051600154604080516370a0823160e01b81526001600160a01b0392831660048201529051929350600092918916916370a0823191602480820192602092909190829003018186803b15801561134957600080fd5b505afa15801561135d573d6000803e3d6000fd5b505050506040513d602081101561137357600080fd5b5051905060006113838284612705565b60015460408051630a48d5a960e01b81526001600160a01b038c811660048301526024820185905291519394506000939190921691630a48d5a9916044808301926020929190829003018186803b1580156113dd57600080fd5b505afa1580156113f1573d6000803e3d6000fd5b505050506040513d602081101561140757600080fd5b5051855190915060009061141b9089612747565b9050600061143683886020015161274790919063ffffffff16565b905080156114ab5760006114508261082b8561271161266a565b90506003548110156114a9576040805162461bcd60e51b815260206004820152601f60248201527f5661756c745574696c733a206c6576657261676520697320746f6f206c6f7700604482015290519081900360640190fd5b505b505050505050505050505050565b6000546001600160a01b03163314611510576040805162461bcd60e51b815260206004820152601560248201527423b7bb32b93730b136329d103337b93134b23232b760591b604482015290519081900360640190fd5b620186a08111156115525760405162461bcd60e51b8152600401808060200182810382526025815260200180612a686025913960400191505060405180910390fd5b600355565b600154604080516342b60b0360e01b81526001600160a01b038481166004830152915160009392909216916342b60b0391602480820192602092909190829003018186803b1580156115a857600080fd5b505afa1580156115bc573d6000803e3d6000fd5b505050506040513d60208110156115d257600080fd5b50511561165957600154604080516352f55eed60e01b81526001600160a01b038581166004830152915191909216916352f55eed916024808301926020929190829003018186803b15801561162657600080fd5b505afa15801561163a573d6000803e3d6000fd5b505050506040513d602081101561165057600080fd5b50519050610835565b6001546040805163783a2b6760e11b81526001600160a01b03858116600483015291516000939290921691639899cd02918691849163f07456ce916024808301926020929190829003018186803b1580156116b357600080fd5b505afa1580156116c7573d6000803e3d6000fd5b505050506040513d60208110156116dd57600080fd5b5051604080516001600160e01b031960e086901b1681526001600160a01b0390931660048401526024830191909152516044808301926020929190829003018186803b15801561172c57600080fd5b505afa158015611740573d6000803e3d6000fd5b505050506040513d602081101561175657600080fd5b50516001546040805163c3c7b9e960e01b81526001600160a01b038781166004830152915193945061083193919092169163c3c7b9e9916024808301926020929190829003018186803b1580156117ac57600080fd5b505afa1580156117c0573d6000803e3d6000fd5b505050506040513d60208110156117d657600080fd5b5051600154604080516352f55eed60e01b81526001600160a01b038881166004830152915161185d9392909216916352f55eed91602480820192602092909190829003018186803b15801561182a57600080fd5b505afa15801561183e573d6000803e3d6000fd5b505050506040513d602081101561185457600080fd5b50518490612747565b90612705565b6001546040805163c65bc7b160e01b81526001600160a01b0386811660048301529151600093929092169163c65bc7b191602480820192602092909190829003018186803b1580156118b457600080fd5b505afa1580156118c8573d6000803e3d6000fd5b505050506040513d60208110156118de57600080fd5b5051949350505050565b6001546040805163114f1b5560e31b81526001600160a01b038481166004830152915160009384938493911691638a78daa891602480820192602092909190829003018186803b15801561193b57600080fd5b505afa15801561194f573d6000803e3d6000fd5b505050506040513d602081101561196557600080fd5b505190508061197b576000809250925050611aba565b60015460408051637092736960e11b81526001600160a01b0387811660048301529151600093929092169163e124e6d291602480820192602092909190829003018186803b1580156119cc57600080fd5b505afa1580156119e0573d6000803e3d6000fd5b505050506040513d60208110156119f657600080fd5b505160015460408051636274980360e01b81526001600160a01b038981166004830152915193945060009391909216916362749803916024808301926020929190829003018186803b158015611a4b57600080fd5b505afa158015611a5f573d6000803e3d6000fd5b505050506040513d6020811015611a7557600080fd5b505190506000828211611a9157611a8c8383612705565b611a9b565b611a9b8284612705565b90506000611aad8361082b878561266a565b9390921195509193505050505b915091565b60015460408051639f392eb360e01b815290516000926001600160a01b031691639f392eb3916004808301926020929190829003018186803b158015611b0457600080fd5b505afa158015611b18573d6000803e3d6000fd5b505050506040513d6020811015611b2e57600080fd5b5051611b3b575082611cd2565b60015460408051631aa4ace560e01b81526001600160a01b03898116600483015291516000939290921691631aa4ace591602480820192602092909190829003018186803b158015611b8c57600080fd5b505afa158015611ba0573d6000803e3d6000fd5b505050506040513d6020811015611bb657600080fd5b505190506000611bc68288612747565b905083611be957818711611be357611bde8288612705565b611be6565b60005b90505b6000611bf4896108e9565b905080611c0657869350505050611cd2565b6000818411611c1e57611c198285612705565b611c28565b611c288483612705565b90506000828411611c4257611c3d8385612705565b611c4c565b611c4c8484612705565b905081811015611c8e576000611c668461082b8b8661266a565b9050898111611c7e57611c798a82612705565b611c81565b60005b9650505050505050611cd2565b6000611c9f600261082b8585612747565b905083811115611cac5750825b6000611cbc8561082b8c8561266a565b9050611cc88b82612747565b9750505050505050505b95945050505050565b6000546001600160a01b03163314611d32576040805162461bcd60e51b815260206004820152601560248201527423b7bb32b93730b136329d103337b93134b23232b760591b604482015290519081900360640190fd5b600080546001600160a01b0319166001600160a01b0392909216919091179055565b600080611d5f6129a9565b611d6b888888886127a1565b6001548151604083015160c08401519394506001600160a01b03909216926000928392611d9c928c92908c90610d88565b915091506000611db88c8c8c8c89600001518a606001516123db565b9050611dd5611dce8d8d8d8d8a600001516125b7565b8290612747565b905082158015611de85750818560200151105b15611e50578715611e40576040805162461bcd60e51b815260206004820152601f60248201527f5661756c743a206c6f737365732065786365656420636f6c6c61746572616c00604482015290519081900360640190fd5b6001965094506110549350505050565b602085015183611e6c576020860151611e699084612705565b90505b81811015611ed8578815611ec7576040805162461bcd60e51b815260206004820152601d60248201527f5661756c743a20666565732065786365656420636f6c6c61746572616c000000604482015290519081900360640190fd5b600197509550611054945050505050565b611f47856001600160a01b031663174d26946040518163ffffffff1660e01b815260040160206040518083038186803b158015611f1457600080fd5b505afa158015611f28573d6000803e3d6000fd5b505050506040513d6020811015611f3e57600080fd5b50518390612747565b811015611f9c578815611f8b5760405162461bcd60e51b8152600401808060200182810382526029815260200180612a136029913960400191505060405180910390fd5b506001965094506110549350505050565b8551611faa9061271061266a565b612019866001600160a01b031663ae3302c26040518163ffffffff1660e01b815260040160206040518083038186803b158015611fe657600080fd5b505afa158015611ffa573d6000803e3d6000fd5b505050506040513d602081101561201057600080fd5b5051839061266a565b1015612083578815612072576040805162461bcd60e51b815260206004820152601b60248201527f5661756c743a206d61784c657665726167652065786365656465640000000000604482015290519081900360640190fd5b506002965094506110549350505050565b5060009c909b509950505050505050505050565b600154604080516342b60b0360e01b81526001600160a01b0386811660048301529151600093849316916342b60b03916024808301926020929190829003018186803b1580156120e657600080fd5b505afa1580156120fa573d6000803e3d6000fd5b505050506040513d602081101561211057600080fd5b505180156121935750600154604080516342b60b0360e01b81526001600160a01b038781166004830152915191909216916342b60b03916024808301926020929190829003018186803b15801561216657600080fd5b505afa15801561217a573d6000803e3d6000fd5b505050506040513d602081101561219057600080fd5b50515b905060008161221b57600160009054906101000a90046001600160a01b03166001600160a01b031663a22f23926040518163ffffffff1660e01b815260040160206040518083038186803b1580156121ea57600080fd5b505afa1580156121fe573d6000803e3d6000fd5b505050506040513d602081101561221457600080fd5b5051612296565b600160009054906101000a90046001600160a01b03166001600160a01b031663df73a2676040518163ffffffff1660e01b815260040160206040518083038186803b15801561226957600080fd5b505afa15801561227d573d6000803e3d6000fd5b505050506040513d602081101561229357600080fd5b50515b905060008261231e57600160009054906101000a90046001600160a01b03166001600160a01b0316637a210a2b6040518163ffffffff1660e01b815260040160206040518083038186803b1580156122ed57600080fd5b505afa158015612301573d6000803e3d6000fd5b505050506040513d602081101561231757600080fd5b5051612399565b600160009054906101000a90046001600160a01b03166001600160a01b03166310eb56c26040518163ffffffff1660e01b815260040160206040518083038186803b15801561236c57600080fd5b505afa158015612380573d6000803e3d6000fd5b505050506040513d602081101561239657600080fd5b50515b905060006123ab888785856001611abf565b905060006123bd888886866000611abf565b90508082116123cc57806123ce565b815b9998505050505050505050565b6000826123ea57506000612497565b6001546040805163c65bc7b160e01b81526001600160a01b038981166004830152915160009361247193879391169163c65bc7b191602480820192602092909190829003018186803b15801561243f57600080fd5b505afa158015612453573d6000803e3d6000fd5b505050506040513d602081101561246957600080fd5b505190612705565b905080612482576000915050612497565b612493620f424061082b868461266a565b9150505b9695505050505050565b6000610cb58383600160009054906101000a90046001600160a01b03166001600160a01b0316634d47b3046040518163ffffffff1660e01b815260040160206040518083038186803b1580156124f657600080fd5b505afa15801561250a573d6000803e3d6000fd5b505050506040513d602081101561252057600080fd5b505160015460408051637a210a2b60e01b815290516001600160a01b0390921691637a210a2b91600480820192602092909190829003018186803b15801561256757600080fd5b505afa15801561257b573d6000803e3d6000fd5b505050506040513d602081101561259157600080fd5b50516000611abf565b60025481565b6001546001600160a01b031681565b600192915050565b6000816125c657506000611cd2565b600061265e61271061082b612657600160009054906101000a90046001600160a01b03166001600160a01b031663318bc6896040518163ffffffff1660e01b815260040160206040518083038186803b15801561262257600080fd5b505afa158015612636573d6000803e3d6000fd5b505050506040513d602081101561264c57600080fd5b505161271090612705565b869061266a565b9050610d7d8382612705565b60008261267957506000610cb8565b8282028284828161268657fe5b0414610cb55760405162461bcd60e51b8152600401808060200182810382526021815260200180612a8d6021913960400191505060405180910390fd5b6000610cb583836040518060400160405280601a81526020017f536166654d6174683a206469766973696f6e206279207a65726f0000000000008152506128ad565b6000610cb583836040518060400160405280601e81526020017f536166654d6174683a207375627472616374696f6e206f766572666c6f77000081525061294f565b600082820183811015610cb5576040805162461bcd60e51b815260206004820152601b60248201527f536166654d6174683a206164646974696f6e206f766572666c6f770000000000604482015290519081900360640190fd5b6127a96129a9565b6001546001600160a01b03166127bd6129a9565b6000806000806000866001600160a01b0316634a3f088d8d8d8d8d6040518563ffffffff1660e01b815260040180856001600160a01b03168152602001846001600160a01b03168152602001836001600160a01b0316815260200182151581526020019450505050506101006040518083038186803b15801561283f57600080fd5b505afa158015612853573d6000803e3d6000fd5b505050506040513d61010081101561286a57600080fd5b50805160208083015160408085015160608087015160e090970151958d52938c01929092528a015288019190915260c087015250939a9950505050505050505050565b600081836129395760405162461bcd60e51b81526004018080602001828103825283818151815260200191508051906020019080838360005b838110156128fe5781810151838201526020016128e6565b50505050905090810190601f16801561292b5780820380516001836020036101000a031916815260200191505b509250505060405180910390fd5b50600083858161294557fe5b0495945050505050565b600081848411156129a15760405162461bcd60e51b81526020600482018181528351602484015283519092839260449091019190850190808383600083156128fe5781810151838201526020016128e6565b505050900390565b6040518060e0016040528060008152602001600081526020016000815260200160008152602001600081526020016000815260200160008152509056fe5661756c745574696c733a204d6178207769746864726177616c20636f6f6c646f776e206475726174696f6e5661756c743a206c69717569646174696f6e20666565732065786365656420636f6c6c61746572616c5661756c745574696c733a20636f6f6c646f776e206475726174696f6e206e6f7420796574207061737365645661756c745574696c733a204d696e206c6576657261676520636170206578636565646564536166654d6174683a206d756c7469706c69636174696f6e206f766572666c6f77a2646970667358221220d6b4744f13426a47708dd54cadebfb8b1487e5743b698a0f3d9d1d07079de65d64736f6c634300060c0033",
  "linkReferences": {},
  "deployedLinkReferences": {}
}