{
  "_format": "hh-sol-artifact-1",
  "contractName": "VaultPriceFeed",
  "sourceName": "contracts/core/VaultPriceFeed.sol",
  "abi": [
    {
      "inputs": [],
      "stateMutability": "nonpayable",
      "type": "constructor"
    },
    {
      "inputs": [],
      "name": "BASIS_POINTS_DIVISOR",
      "outputs": [
        {
          "internalType": "uint256",
          "name": "",
          "type": "uint256"
        }
      ],
      "stateMutability": "view",
      "type": "function"
    },
    {
      "inputs": [],
      "name": "MAX_ADJUSTMENT_BASIS_POINTS",
      "outputs": [
        {
          "internalType": "uint256",
          "name": "",
          "type": "uint256"
        }
      ],
      "stateMutability": "view",
      "type": "function"
    },
    {
      "inputs": [],
      "name": "MAX_ADJUSTMENT_INTERVAL",
      "outputs": [
        {
          "internalType": "uint256",
          "name": "",
          "type": "uint256"
        }
      ],
      "stateMutability": "view",
      "type": "function"
    },
    {
      "inputs": [],
      "name": "MAX_SPREAD_BASIS_POINTS",
      "outputs": [
        {
          "internalType": "uint256",
          "name": "",
          "type": "uint256"
        }
      ],
      "stateMutability": "view",
      "type": "function"
    },
    {
      "inputs": [],
      "name": "ONE_USD",
      "outputs": [
        {
          "internalType": "uint256",
          "name": "",
          "type": "uint256"
        }
      ],
      "stateMutability": "view",
      "type": "function"
    },
    {
      "inputs": [],
      "name": "PRICE_PRECISION",
      "outputs": [
        {
          "internalType": "uint256",
          "name": "",
          "type": "uint256"
        }
      ],
      "stateMutability": "view",
      "type": "function"
    },
    {
      "inputs": [
        {
          "internalType": "address",
          "name": "",
          "type": "address"
        }
      ],
      "name": "adjustmentBasisPoints",
      "outputs": [
        {
          "internalType": "uint256",
          "name": "",
          "type": "uint256"
        }
      ],
      "stateMutability": "view",
      "type": "function"
    },
    {
      "inputs": [],
      "name": "bnb",
      "outputs": [
        {
          "internalType": "address",
          "name": "",
          "type": "address"
        }
      ],
      "stateMutability": "view",
      "type": "function"
    },
    {
      "inputs": [],
      "name": "bnbBusd",
      "outputs": [
        {
          "internalType": "address",
          "name": "",
          "type": "address"
        }
      ],
      "stateMutability": "view",
      "type": "function"
    },
    {
      "inputs": [],
      "name": "btc",
      "outputs": [
        {
          "internalType": "address",
          "name": "",
          "type": "address"
        }
      ],
      "stateMutability": "view",
      "type": "function"
    },
    {
      "inputs": [],
      "name": "btcBnb",
      "outputs": [
        {
          "internalType": "address",
          "name": "",
          "type": "address"
        }
      ],
      "stateMutability": "view",
      "type": "function"
    },
    {
      "inputs": [],
      "name": "chainlinkFlags",
      "outputs": [
        {
          "internalType": "address",
          "name": "",
          "type": "address"
        }
      ],
      "stateMutability": "view",
      "type": "function"
    },
    {
      "inputs": [],
      "name": "eth",
      "outputs": [
        {
          "internalType": "address",
          "name": "",
          "type": "address"
        }
      ],
      "stateMutability": "view",
      "type": "function"
    },
    {
      "inputs": [],
      "name": "ethBnb",
      "outputs": [
        {
          "internalType": "address",
          "name": "",
          "type": "address"
        }
      ],
      "stateMutability": "view",
      "type": "function"
    },
    {
      "inputs": [],
      "name": "favorPrimaryPrice",
      "outputs": [
        {
          "internalType": "bool",
          "name": "",
          "type": "bool"
        }
      ],
      "stateMutability": "view",
      "type": "function"
    },
    {
      "inputs": [
        {
          "internalType": "address",
          "name": "_token",
          "type": "address"
        }
      ],
      "name": "getAmmPrice",
      "outputs": [
        {
          "internalType": "uint256",
          "name": "",
          "type": "uint256"
        }
      ],
      "stateMutability": "view",
      "type": "function"
    },
    {
      "inputs": [
        {
          "internalType": "address",
          "name": "_token",
          "type": "address"
        },
        {
          "internalType": "bool",
          "name": "_maximise",
          "type": "bool"
        },
        {
          "internalType": "uint256",
          "name": "_primaryPrice",
          "type": "uint256"
        }
      ],
      "name": "getAmmPriceV2",
      "outputs": [
        {
          "internalType": "uint256",
          "name": "",
          "type": "uint256"
        }
      ],
      "stateMutability": "view",
      "type": "function"
    },
    {
      "inputs": [
        {
          "internalType": "address",
          "name": "_pair",
          "type": "address"
        },
        {
          "internalType": "bool",
          "name": "_divByReserve0",
          "type": "bool"
        }
      ],
      "name": "getPairPrice",
      "outputs": [
        {
          "internalType": "uint256",
          "name": "",
          "type": "uint256"
        }
      ],
      "stateMutability": "view",
      "type": "function"
    },
    {
      "inputs": [
        {
          "internalType": "address",
          "name": "_token",
          "type": "address"
        },
        {
          "internalType": "bool",
          "name": "_maximise",
          "type": "bool"
        },
        {
          "internalType": "bool",
          "name": "_includeAmmPrice",
          "type": "bool"
        },
        {
          "internalType": "bool",
          "name": "",
          "type": "bool"
        }
      ],
      "name": "getPrice",
      "outputs": [
        {
          "internalType": "uint256",
          "name": "",
          "type": "uint256"
        }
      ],
      "stateMutability": "view",
      "type": "function"
    },
    {
      "inputs": [
        {
          "internalType": "address",
          "name": "_token",
          "type": "address"
        },
        {
          "internalType": "bool",
          "name": "_maximise",
          "type": "bool"
        },
        {
          "internalType": "bool",
          "name": "_includeAmmPrice",
          "type": "bool"
        }
      ],
      "name": "getPriceV1",
      "outputs": [
        {
          "internalType": "uint256",
          "name": "",
          "type": "uint256"
        }
      ],
      "stateMutability": "view",
      "type": "function"
    },
    {
      "inputs": [
        {
          "internalType": "address",
          "name": "_token",
          "type": "address"
        },
        {
          "internalType": "bool",
          "name": "_maximise",
          "type": "bool"
        },
        {
          "internalType": "bool",
          "name": "_includeAmmPrice",
          "type": "bool"
        }
      ],
      "name": "getPriceV2",
      "outputs": [
        {
          "internalType": "uint256",
          "name": "",
          "type": "uint256"
        }
      ],
      "stateMutability": "view",
      "type": "function"
    },
    {
      "inputs": [
        {
          "internalType": "address",
          "name": "_token",
          "type": "address"
        },
        {
          "internalType": "bool",
          "name": "_maximise",
          "type": "bool"
        }
      ],
      "name": "getPrimaryPrice",
      "outputs": [
        {
          "internalType": "uint256",
          "name": "",
          "type": "uint256"
        }
      ],
      "stateMutability": "view",
      "type": "function"
    },
    {
      "inputs": [
        {
          "internalType": "address",
          "name": "_token",
          "type": "address"
        },
        {
          "internalType": "uint256",
          "name": "_referencePrice",
          "type": "uint256"
        },
        {
          "internalType": "bool",
          "name": "_maximise",
          "type": "bool"
        }
      ],
      "name": "getSecondaryPrice",
      "outputs": [
        {
          "internalType": "uint256",
          "name": "",
          "type": "uint256"
        }
      ],
      "stateMutability": "view",
      "type": "function"
    },
    {
      "inputs": [],
      "name": "gov",
      "outputs": [
        {
          "internalType": "address",
          "name": "",
          "type": "address"
        }
      ],
      "stateMutability": "view",
      "type": "function"
    },
    {
      "inputs": [],
      "name": "h2soQuoteLifetimeSeconds",
      "outputs": [
        {
          "internalType": "uint256",
          "name": "",
          "type": "uint256"
        }
      ],
      "stateMutability": "view",
      "type": "function"
    },
    {
      "inputs": [
        {
          "internalType": "bytes",
          "name": "signedQuoteData",
          "type": "bytes"
        }
      ],
      "name": "h2sofaApplySignedQuote",
      "outputs": [],
      "stateMutability": "nonpayable",
      "type": "function"
    },
    {
      "inputs": [
        {
          "internalType": "address",
          "name": "",
          "type": "address"
        }
      ],
      "name": "isAdjustmentAdditive",
      "outputs": [
        {
          "internalType": "bool",
          "name": "",
          "type": "bool"
        }
      ],
      "stateMutability": "view",
      "type": "function"
    },
    {
      "inputs": [],
      "name": "isAmmEnabled",
      "outputs": [
        {
          "internalType": "bool",
          "name": "",
          "type": "bool"
        }
      ],
      "stateMutability": "view",
      "type": "function"
    },
    {
      "inputs": [],
      "name": "isSecondaryPriceEnabled",
      "outputs": [
        {
          "internalType": "bool",
          "name": "",
          "type": "bool"
        }
      ],
      "stateMutability": "view",
      "type": "function"
    },
    {
      "inputs": [
        {
          "internalType": "address",
          "name": "",
          "type": "address"
        }
      ],
      "name": "lastAdjustmentTimings",
      "outputs": [
        {
          "internalType": "uint256",
          "name": "",
          "type": "uint256"
        }
      ],
      "stateMutability": "view",
      "type": "function"
    },
    {
      "inputs": [],
      "name": "maxStrictPriceDeviation",
      "outputs": [
        {
          "internalType": "uint256",
          "name": "",
          "type": "uint256"
        }
      ],
      "stateMutability": "view",
      "type": "function"
    },
    {
      "inputs": [
        {
          "internalType": "address",
          "name": "",
          "type": "address"
        }
      ],
      "name": "priceDecimals",
      "outputs": [
        {
          "internalType": "uint256",
          "name": "",
          "type": "uint256"
        }
      ],
      "stateMutability": "view",
      "type": "function"
    },
    {
      "inputs": [
        {
          "internalType": "address",
          "name": "",
          "type": "address"
        }
      ],
      "name": "priceFeeds",
      "outputs": [
        {
          "internalType": "address",
          "name": "",
          "type": "address"
        }
      ],
      "stateMutability": "view",
      "type": "function"
    },
    {
      "inputs": [],
      "name": "priceSampleSpace",
      "outputs": [
        {
          "internalType": "uint256",
          "name": "",
          "type": "uint256"
        }
      ],
      "stateMutability": "view",
      "type": "function"
    },
    {
      "inputs": [],
      "name": "secondaryPriceFeed",
      "outputs": [
        {
          "internalType": "address",
          "name": "",
          "type": "address"
        }
      ],
      "stateMutability": "view",
      "type": "function"
    },
    {
      "inputs": [
        {
          "internalType": "address",
          "name": "_token",
          "type": "address"
        },
        {
          "internalType": "bool",
          "name": "_isAdditive",
          "type": "bool"
        },
        {
          "internalType": "uint256",
          "name": "_adjustmentBps",
          "type": "uint256"
        }
      ],
      "name": "setAdjustment",
      "outputs": [],
      "stateMutability": "nonpayable",
      "type": "function"
    },
    {
      "inputs": [
        {
          "internalType": "address",
          "name": "_chainlinkFlags",
          "type": "address"
        }
      ],
      "name": "setChainlinkFlags",
      "outputs": [],
      "stateMutability": "nonpayable",
      "type": "function"
    },
    {
      "inputs": [
        {
          "internalType": "bool",
          "name": "_favorPrimaryPrice",
          "type": "bool"
        }
      ],
      "name": "setFavorPrimaryPrice",
      "outputs": [],
      "stateMutability": "nonpayable",
      "type": "function"
    },
    {
      "inputs": [
        {
          "internalType": "address",
          "name": "_gov",
          "type": "address"
        }
      ],
      "name": "setGov",
      "outputs": [],
      "stateMutability": "nonpayable",
      "type": "function"
    },
    {
      "inputs": [
        {
          "internalType": "uint256",
          "name": "value",
          "type": "uint256"
        }
      ],
      "name": "setH2soQuoteLifetimeSeconds",
      "outputs": [],
      "stateMutability": "nonpayable",
      "type": "function"
    },
    {
      "inputs": [
        {
          "internalType": "bool",
          "name": "_isEnabled",
          "type": "bool"
        }
      ],
      "name": "setIsAmmEnabled",
      "outputs": [],
      "stateMutability": "nonpayable",
      "type": "function"
    },
    {
      "inputs": [
        {
          "internalType": "bool",
          "name": "_isEnabled",
          "type": "bool"
        }
      ],
      "name": "setIsSecondaryPriceEnabled",
      "outputs": [],
      "stateMutability": "nonpayable",
      "type": "function"
    },
    {
      "inputs": [
        {
          "internalType": "uint256",
          "name": "_maxStrictPriceDeviation",
          "type": "uint256"
        }
      ],
      "name": "setMaxStrictPriceDeviation",
      "outputs": [],
      "stateMutability": "nonpayable",
      "type": "function"
    },
    {
      "inputs": [
        {
          "internalType": "address",
          "name": "_bnbBusd",
          "type": "address"
        },
        {
          "internalType": "address",
          "name": "_ethBnb",
          "type": "address"
        },
        {
          "internalType": "address",
          "name": "_btcBnb",
          "type": "address"
        }
      ],
      "name": "setPairs",
      "outputs": [],
      "stateMutability": "nonpayable",
      "type": "function"
    },
    {
      "inputs": [
        {
          "internalType": "uint256",
          "name": "_priceSampleSpace",
          "type": "uint256"
        }
      ],
      "name": "setPriceSampleSpace",
      "outputs": [],
      "stateMutability": "nonpayable",
      "type": "function"
    },
    {
      "inputs": [
        {
          "internalType": "address",
          "name": "_secondaryPriceFeed",
          "type": "address"
        }
      ],
      "name": "setSecondaryPriceFeed",
      "outputs": [],
      "stateMutability": "nonpayable",
      "type": "function"
    },
    {
      "inputs": [
        {
          "internalType": "address",
          "name": "_token",
          "type": "address"
        },
        {
          "internalType": "uint256",
          "name": "_spreadBasisPoints",
          "type": "uint256"
        }
      ],
      "name": "setSpreadBasisPoints",
      "outputs": [],
      "stateMutability": "nonpayable",
      "type": "function"
    },
    {
      "inputs": [
        {
          "internalType": "uint256",
          "name": "_spreadThresholdBasisPoints",
          "type": "uint256"
        }
      ],
      "name": "setSpreadThresholdBasisPoints",
      "outputs": [],
      "stateMutability": "nonpayable",
      "type": "function"
    },
    {
      "inputs": [
        {
          "internalType": "address",
          "name": "_token",
          "type": "address"
        },
        {
          "internalType": "address",
          "name": "_priceFeed",
          "type": "address"
        },
        {
          "internalType": "uint256",
          "name": "_priceDecimals",
          "type": "uint256"
        },
        {
          "internalType": "bool",
          "name": "_isStrictStable",
          "type": "bool"
        }
      ],
      "name": "setTokenConfig",
      "outputs": [],
      "stateMutability": "nonpayable",
      "type": "function"
    },
    {
      "inputs": [
        {
          "internalType": "address",
          "name": "_btc",
          "type": "address"
        },
        {
          "internalType": "address",
          "name": "_eth",
          "type": "address"
        },
        {
          "internalType": "address",
          "name": "_bnb",
          "type": "address"
        }
      ],
      "name": "setTokens",
      "outputs": [],
      "stateMutability": "nonpayable",
      "type": "function"
    },
    {
      "inputs": [
        {
          "internalType": "bool",
          "name": "_useV2Pricing",
          "type": "bool"
        }
      ],
      "name": "setUseV2Pricing",
      "outputs": [],
      "stateMutability": "nonpayable",
      "type": "function"
    },
    {
      "inputs": [
        {
          "internalType": "address",
          "name": "",
          "type": "address"
        }
      ],
      "name": "spreadBasisPoints",
      "outputs": [
        {
          "internalType": "uint256",
          "name": "",
          "type": "uint256"
        }
      ],
      "stateMutability": "view",
      "type": "function"
    },
    {
      "inputs": [],
      "name": "spreadThresholdBasisPoints",
      "outputs": [
        {
          "internalType": "uint256",
          "name": "",
          "type": "uint256"
        }
      ],
      "stateMutability": "view",
      "type": "function"
    },
    {
      "inputs": [
        {
          "internalType": "address",
          "name": "",
          "type": "address"
        }
      ],
      "name": "strictStableTokens",
      "outputs": [
        {
          "internalType": "bool",
          "name": "",
          "type": "bool"
        }
      ],
      "stateMutability": "view",
      "type": "function"
    },
    {
      "inputs": [],
      "name": "useV2Pricing",
      "outputs": [
        {
          "internalType": "bool",
          "name": "",
          "type": "bool"
        }
      ],
      "stateMutability": "view",
      "type": "function"
    }
  ],
  "bytecode": "0x60806040526001805461ffff60b01b1960ff60a81b1960ff60a01b19909216600160a01b1791909116600160a81b1716815560025560006003819055601e60055560065534801561004f57600080fd5b50600080546001600160a01b0319163317905561297a806100716000396000f3fe608060405234801561001057600080fd5b506004361061035d5760003560e01c8063717cfe7a116101d3578063a27ea38611610104578063c2138d8c116100a2578063d694376c1161007c578063d694376c14610958578063e4440e021461098c578063eb1c92a914610994578063fd34ec40146109b35761035d565b8063c2138d8c146108e6578063cefe0f211461090c578063cfad57a2146109325761035d565b8063a39c73a3116100de578063a39c73a314610867578063b02a2de41461086f578063b731dd87146108a3578063b8f61105146108c05761035d565b8063a27ea3861461080b578063a28d57d814610831578063a2ad7b93146108395761035d565b8063971bd396116101715780639a0a66351161014b5780639a0a66351461078b5780639b18dc47146107b15780639b889380146107b95780639dcb511a146107e55761035d565b8063971bd3961461075c57806397dfade7146107645780639917dc741461076c5761035d565b80638b86616c116101ad5780638b86616c146107145780638c7c9e0c1461071c57806393f690741461072457806395082d251461065c5761035d565b8063717cfe7a14610692578063732391b4146106b8578063826e055f146106ee5761035d565b80633eba8d36116102ad5780634b9ade471161024b578063604f37e911610225578063604f37e91461063d57806367781c0e1461065c5780636ce8a44b146106645780636fc807081461068a5761035d565b80634b9ade47146105c957806356c8c2c114610607578063593d9e80146106355761035d565b8063443be20911610287578063443be2091461055b57806348cac2771461059357806349a876e4146105b95780634a4b1f4f146105c15761035d565b80633eba8d36146105175780633ebbc6011461054b5780633f0c3bb7146105535761035d565b806329adf8ba1161031a5780632fc3a70a116102f45780632fc3a70a1461047f57806330536ee5146104bd578063378e7bf7146104d95780633d949c5f146104e15761035d565b806329adf8ba146103d75780632fa03b8f146104455780632fbfe3d3146104625761035d565b80630957aed9146103625780630a7e896e1461037c5780630ed77ee21461039b5780631193c809146103a3578063126082cf146103c757806312d43a51146103cf575b600080fd5b61036a6109d2565b60408051918252519081900360200190f35b6103996004803603602081101561039257600080fd5b50356109d7565b005b61036a610a6e565b6103ab610a74565b604080516001600160a01b039092168252519081900360200190f35b61036a610a83565b6103ab610a89565b610399600480360360208110156103ed57600080fd5b810190602081018135600160201b81111561040757600080fd5b82018360208201111561041957600080fd5b803590602001918460018302840111600160201b8311171561043a57600080fd5b509092509050610a98565b6103996004803603602081101561045b57600080fd5b50356111e4565b6103996004803603602081101561047857600080fd5b5035611275565b61036a6004803603608081101561049557600080fd5b506001600160a01b0381351690602081013515159060408101351515906060013515156112c7565b6104c5611385565b604080519115158252519081900360200190f35b61036a611395565b61036a600480360360608110156104f757600080fd5b506001600160a01b0381351690602081013515159060400135151561139b565b61036a6004803603606081101561052d57600080fd5b506001600160a01b0381351690602081013590604001351515611510565b6104c56115be565b6104c56115ce565b6103996004803603606081101561057157600080fd5b506001600160a01b0381358116916020810135821691604090910135166115de565b61036a600480360360208110156105a957600080fd5b50356001600160a01b031661166a565b6103ab61167c565b61036a61168b565b610399600480360360808110156105df57600080fd5b506001600160a01b038135811691602081013590911690604081013590606001351515611690565b61036a6004803603604081101561061d57600080fd5b506001600160a01b0381351690602001351515611732565b6104c5611b76565b6103996004803603602081101561065357600080fd5b50351515611b86565b61036a611bf1565b6104c56004803603602081101561067a57600080fd5b50356001600160a01b0316611c01565b61036a611c16565b61036a600480360360208110156106a857600080fd5b50356001600160a01b0316611c1c565b61036a600480360360608110156106ce57600080fd5b506001600160a01b03813516906020810135151590604001351515611c2e565b6103996004803603602081101561070457600080fd5b50356001600160a01b0316611c83565b6103ab611cf2565b6103ab611d01565b6103996004803603606081101561073a57600080fd5b506001600160a01b038135811691602081013582169160409091013516611d10565b6103ab611d9c565b6103ab611dab565b6103996004803603602081101561078257600080fd5b50351515611dba565b610399600480360360208110156107a157600080fd5b50356001600160a01b0316611e25565b61036a611e94565b610399600480360360408110156107cf57600080fd5b506001600160a01b038135169060200135611e9a565b6103ab600480360360208110156107fb57600080fd5b50356001600160a01b0316611f43565b61036a6004803603602081101561082157600080fd5b50356001600160a01b0316611f5e565b6103ab611f70565b61036a6004803603604081101561084f57600080fd5b506001600160a01b0381351690602001351515611f7f565b61036a612073565b61036a6004803603606081101561088557600080fd5b506001600160a01b0381351690602081013515159060400135612079565b610399600480360360208110156108b957600080fd5b5035612141565b6104c5600480360360208110156108d657600080fd5b50356001600160a01b0316612193565b61036a600480360360208110156108fc57600080fd5b50356001600160a01b03166121a8565b61036a6004803603602081101561092257600080fd5b50356001600160a01b03166122a7565b6103996004803603602081101561094857600080fd5b50356001600160a01b03166122b9565b6103996004803603606081101561096e57600080fd5b506001600160a01b0381351690602081013515159060400135612328565b6103ab61246b565b610399600480360360208110156109aa57600080fd5b5035151561247a565b610399600480360360208110156109c957600080fd5b503515156124e5565b603281565b6000546001600160a01b03163314610a24576040805162461bcd60e51b815260206004820152601960248201526000805160206128b4833981519152604482015290519081900360640190fd5b806006541415610a69576040805162461bcd60e51b815260206004820152600b60248201526a105b1c9958591e481cd95d60aa1b604482015290519081900360640190fd5b600655565b60065481565b600b546001600160a01b031681565b61271081565b6000546001600160a01b031681565b6040805160008082526020820181815282840182815260608085018481526080860185815260a0870190975293959293919290888860e0811015610adb57600080fd5b81359190810190604081016020820135600160201b811115610afc57600080fd5b820183602082011115610b0e57600080fd5b803590602001918460208302840111600160201b83111715610b2f57600080fd5b9190808060200260200160405190810160405280939291908181526020018383602002808284376000920191909152509295949360208101935035915050600160201b811115610b7e57600080fd5b820183602082011115610b9057600080fd5b803590602001918460208302840111600160201b83111715610bb157600080fd5b9190808060200260200160405190810160405280939291908181526020018383602002808284376000920191909152509295949360208101935035915050600160201b811115610c0057600080fd5b820183602082011115610c1257600080fd5b803590602001918460208302840111600160201b83111715610c3357600080fd5b9190808060200260200160405190810160405280939291908181526020018383602002808284376000920191909152509295949360208101935035915050600160201b811115610c8257600080fd5b820183602082011115610c9457600080fd5b803590602001918460208302840111600160201b83111715610cb557600080fd5b9190808060200260200160405190810160405280939291908181526020018383602002808284376000920191909152509295949360208101935035915050600160201b811115610d0457600080fd5b820183602082011115610d1657600080fd5b803590602001918460208302840111600160201b83111715610d3757600080fd5b9190808060200260200160405190810160405280939291908181526020018383602002808284376000920191909152509295949360208101935035915050600160201b811115610d8657600080fd5b820183602082011115610d9857600080fd5b803590602001918460018302840111600160201b83111715610db957600080fd5b91908080601f016020809104026020016040519081016040528093929190818152602001838380828437600081840152601f19601f820116905080830192505050505050509192919290505050809750819850829950839a50849b50859c50869d50505050505050506041815181610e2d57fe5b0615610e3557fe5b866041825181610e4157fe5b0414610e4957fe5b60005b878110156111d85760408051604180825260808201909252828202916060919060208201818036833701905050905060005b6041811015610ecb578483820181518110610e9557fe5b602001015160f81c60f81b828281518110610eac57fe5b60200101906001600160f81b031916908160001a905350600101610e7e565b506000600d60008b8681518110610ede57fe5b60200260200101516001600160a01b03166001600160a01b0316815260200190815260200160002060009054906101000a90046001600160a01b03169050806001600160a01b0316634509bf298a8681518110610f3757fe5b60200260200101518a8781518110610f4b57fe5b60200260200101518a8881518110610f5f57fe5b60200260200101518a8981518110610f7357fe5b6020026020010151876040518663ffffffff1660e01b81526004018086815260200185815260200184815260200183815260200180602001828103825283818151815260200191508051906020019080838360005b83811015610fe0578181015183820152602001610fc8565b50505050905090810190601f16801561100d5780820380516001836020036101000a031916815260200191505b509650505050505050600060405180830381600087803b15801561103057600080fd5b505af1925050508015611041575060015b6111cd5761104d61274c565b8061105857506111c3565b6000816040516020018080602001828103825283818151815260200191508051906020019080838360005b8381101561109b578181015183820152602001611083565b50505050905090810190601f1680156110c85780820380516001836020036101000a031916815260200191505b5060408051601f19818403018152828252805160209182012081840182905260128385015271120c94d3ce88145d5bdd19481a5cc81bdb1960721b60608086019190915283518086039091018152608090940190925282519201919091209094509250849150508183146111ba5760405162461bcd60e51b81526004018080602001828103825283818151815260200191508051906020019080838360005b8381101561117f578181015183820152602001611167565b50505050905090810190601f1680156111ac5780820380516001836020036101000a031916815260200191505b509250505060405180910390fd5b505050506111cd565b3d6000803e3d6000fd5b505050600101610e4c565b50505050505050505050565b6000546001600160a01b03163314611231576040805162461bcd60e51b815260206004820152601960248201526000805160206128b4833981519152604482015290519081900360640190fd5b600081116112705760405162461bcd60e51b81526004018080602001828103825260298152602001806127f36029913960400191505060405180910390fd5b600255565b6000546001600160a01b031633146112c2576040805162461bcd60e51b815260206004820152601960248201526000805160206128b4833981519152604482015290519081900360640190fd5b600355565b6001546000908190600160b01b900460ff166112ed576112e886868661139b565b6112f8565b6112f8868686611c2e565b6001600160a01b038716600090815260116020526040902054909150801561137b576001600160a01b03871660009081526012602052604090205460ff1680156113635761135c61271061135661134f8286612550565b86906125aa565b90612603565b9250611379565b61137661271061135661134f8286612645565b92505b505b5095945050505050565b600154600160b01b900460ff1681565b60035481565b6000806113a88585611732565b90508280156113c05750600154600160a01b900460ff165b156114055760006113d0866121a8565b90508015611403578480156113e457508181115b156113ed578091505b841580156113fa57508181105b15611403578091505b505b600154600160a81b900460ff161561142557611422858286611510565b90505b6001600160a01b03851660009081526010602052604090205460ff16156114af57600068327cb2734119d3b7a9601e1b82116114765761147168327cb2734119d3b7a9601e1b83612645565b61148c565b61148c8268327cb2734119d3b7a9601e1b612645565b905060035481116114ad5768327cb2734119d3b7a9601e1b92505050611509565b505b6001600160a01b0385166000908152600f602052604090205484156114f1576114e86127106113566114e18285612550565b85906125aa565b92505050611509565b6115046127106113566114e18285612645565b925050505b9392505050565b6004546000906001600160a01b031661152a575081611509565b6004805460408051630ffd9c6d60e31b81526001600160a01b038881169482019490945260248101879052851515604482015290519290911691637fece36891606480820192602092909190829003018186803b15801561158a57600080fd5b505afa15801561159e573d6000803e3d6000fd5b505050506040513d60208110156115b457600080fd5b5051949350505050565b600154600160a81b900460ff1681565b600154600160a01b900460ff1681565b6000546001600160a01b0316331461162b576040805162461bcd60e51b815260206004820152601960248201526000805160206128b4833981519152604482015290519081900360640190fd5b600780546001600160a01b039485166001600160a01b031991821617909155600880549385169382169390931790925560098054919093169116179055565b60116020526000908152604090205481565b6009546001600160a01b031681565b601481565b6000546001600160a01b031633146116dd576040805162461bcd60e51b815260206004820152601960248201526000805160206128b4833981519152604482015290519081900360640190fd5b6001600160a01b039384166000908152600d6020908152604080832080546001600160a01b0319169690971695909517909555600e855283812092909255601090935220805460ff1916911515919091179055565b6001600160a01b038083166000908152600d60205260408120549091168061178b5760405162461bcd60e51b81526004018080602001828103825260228152602001806129236022913960400191505060405180910390fd5b6001546001600160a01b0316156118685760015460408051631abf23ff60e11b815273a438451d6458044c3c8cd2f6f31c91ac882a6d91600482015290516000926001600160a01b03169163357e47fe916024808301926020929190829003018186803b1580156117fb57600080fd5b505afa15801561180f573d6000803e3d6000fd5b505050506040513d602081101561182557600080fd5b5051905080156118665760405162461bcd60e51b81526004018080602001828103825260258152602001806128d46025913960400191505060405180910390fd5b505b6000819050600080806000846001600160a01b031663feaf968c6040518163ffffffff1660e01b815260040160a06040518083038186803b1580156118ac57600080fd5b505afa1580156118c0573d6000803e3d6000fd5b505050506040513d60a08110156118d657600080fd5b508051602082015160609092015160065491955091935090915081014211156119305760405162461bcd60e51b81526004018080602001828103825260258152602001806128626025913960400191505060405180910390fd5b60005b600254816001600160501b03161015611aef57806001600160501b0316846001600160501b03161161196457611aef565b60006001600160501b0382166119d15783600081136119ca576040805162461bcd60e51b815260206004820152601d60248201527f5661756c745072696365466565643a20696e76616c6964207072696365000000604482015290519081900360640190fd5b9050611aab565b6000876001600160a01b0316639a6fc8f58488036040518263ffffffff1660e01b815260040180826001600160501b0316815260200191505060a06040518083038186803b158015611a2257600080fd5b505afa158015611a36573d6000803e3d6000fd5b505050506040513d60a0811015611a4c57600080fd5b5060200151905060008113611aa8576040805162461bcd60e51b815260206004820152601d60248201527f5661756c745072696365466565643a20696e76616c6964207072696365000000604482015290519081900360640190fd5b90505b85611ab7579450611ae7565b898015611ac357508581115b15611acf579450611ae7565b89158015611adc57508581105b15611ae5578095505b505b600101611933565b5060008411611b2f5760405162461bcd60e51b815260040180806020018281038252602581526020018061281c6025913960400191505060405180910390fd5b6001600160a01b0389166000908152600e6020526040902054611b66600a82900a6113568768327cb2734119d3b7a9601e1b6125aa565b9750505050505050505b92915050565b600154600160b81b900460ff1681565b6000546001600160a01b03163314611bd3576040805162461bcd60e51b815260206004820152601960248201526000805160206128b4833981519152604482015290519081900360640190fd5b60018054911515600160b81b0260ff60b81b19909216919091179055565b68327cb2734119d3b7a9601e1b81565b60126020526000908152604090205460ff1681565b60025481565b60136020526000908152604090205481565b600080611c3b8585611732565b9050828015611c535750600154600160a01b900460ff165b1561140557611c63858583612079565b905060015460ff600160a81b909104161561142557611422858286611510565b6000546001600160a01b03163314611cd0576040805162461bcd60e51b815260206004820152601960248201526000805160206128b4833981519152604482015290519081900360640190fd5b600180546001600160a01b0319166001600160a01b0392909216919091179055565b6004546001600160a01b031681565b6008546001600160a01b031681565b6000546001600160a01b03163314611d5d576040805162461bcd60e51b815260206004820152601960248201526000805160206128b4833981519152604482015290519081900360640190fd5b600a80546001600160a01b039485166001600160a01b031991821617909155600b805493851693821693909317909255600c8054919093169116179055565b600c546001600160a01b031681565b600a546001600160a01b031681565b6000546001600160a01b03163314611e07576040805162461bcd60e51b815260206004820152601960248201526000805160206128b4833981519152604482015290519081900360640190fd5b60018054911515600160a01b0260ff60a01b19909216919091179055565b6000546001600160a01b03163314611e72576040805162461bcd60e51b815260206004820152601960248201526000805160206128b4833981519152604482015290519081900360640190fd5b600480546001600160a01b0319166001600160a01b0392909216919091179055565b611c2081565b6000546001600160a01b03163314611ee7576040805162461bcd60e51b815260206004820152601960248201526000805160206128b4833981519152604482015290519081900360640190fd5b6032811115611f275760405162461bcd60e51b815260040180806020018281038252602a8152602001806128f9602a913960400191505060405180910390fd5b6001600160a01b039091166000908152600f6020526040902055565b600d602052600090815260409020546001600160a01b031681565b600f6020526000908152604090205481565b6007546001600160a01b031681565b6000806000846001600160a01b0316630902f1ac6040518163ffffffff1660e01b815260040160606040518083038186803b158015611fbd57600080fd5b505afa158015611fd1573d6000803e3d6000fd5b505050506040513d6060811015611fe757600080fd5b5080516020909101516dffffffffffffffffffffffffffff91821693501690508315612040578161201d57600092505050611b70565b612037826113568368327cb2734119d3b7a9601e1b6125aa565b92505050611b70565b8061205057600092505050611b70565b61206a816113568468327cb2734119d3b7a9601e1b6125aa565b95945050505050565b60055481565b600080612085856121a8565b9050806120955782915050611509565b60008382116120ad576120a88483612645565b6120b7565b6120b78285612645565b90506120ce600554856125aa90919063ffffffff16565b6120da826127106125aa565b101561210457600154600160b81b900460ff16156120fc578392505050611509565b509050611509565b84801561211057508382115b1561211d57509050611509565b8415801561212a57508382105b1561213757509050611509565b5091949350505050565b6000546001600160a01b0316331461218e576040805162461bcd60e51b815260206004820152601960248201526000805160206128b4833981519152604482015290519081900360640190fd5b600555565b60106020526000908152604090205460ff1681565b6009546000906001600160a01b03838116911614156121df57600a546121d8906001600160a01b03166001611f7f565b90506122a2565b6008546001600160a01b038381169116141561225157600a5460009061220f906001600160a01b03166001611f7f565b600b5490915060009061222c906001600160a01b03166001611f7f565b905061224868327cb2734119d3b7a9601e1b61135684846125aa565b925050506122a2565b6007546001600160a01b038381169116141561229e57600a54600090612281906001600160a01b03166001611f7f565b600c5490915060009061222c906001600160a01b03166001611f7f565b5060005b919050565b600e6020526000908152604090205481565b6000546001600160a01b03163314612306576040805162461bcd60e51b815260206004820152601960248201526000805160206128b4833981519152604482015290519081900360640190fd5b600080546001600160a01b0319166001600160a01b0392909216919091179055565b6000546001600160a01b03163314612375576040805162461bcd60e51b815260206004820152601960248201526000805160206128b4833981519152604482015290519081900360640190fd5b6001600160a01b038316600090815260136020526040902054429061239c90611c20612550565b106123d85760405162461bcd60e51b815260040180806020018281038252602d815260200180612887602d913960400191505060405180910390fd5b6014811115612427576040805162461bcd60e51b8152602060048201526016602482015275696e76616c6964205f61646a7573746d656e7442707360501b604482015290519081900360640190fd5b6001600160a01b03929092166000908152601260209081526040808320805460ff191694151594909417909355601181528282209390935560139092529020429055565b6001546001600160a01b031681565b6000546001600160a01b031633146124c7576040805162461bcd60e51b815260206004820152601960248201526000805160206128b4833981519152604482015290519081900360640190fd5b60018054911515600160a81b0260ff60a81b19909216919091179055565b6000546001600160a01b03163314612532576040805162461bcd60e51b815260206004820152601960248201526000805160206128b4833981519152604482015290519081900360640190fd5b60018054911515600160b01b0260ff60b01b19909216919091179055565b600082820183811015611509576040805162461bcd60e51b815260206004820152601b60248201527f536166654d6174683a206164646974696f6e206f766572666c6f770000000000604482015290519081900360640190fd5b6000826125b957506000611b70565b828202828482816125c657fe5b04146115095760405162461bcd60e51b81526004018080602001828103825260218152602001806128416021913960400191505060405180910390fd5b600061150983836040518060400160405280601a81526020017f536166654d6174683a206469766973696f6e206279207a65726f000000000000815250612687565b600061150983836040518060400160405280601e81526020017f536166654d6174683a207375627472616374696f6e206f766572666c6f7700008152506126ec565b600081836126d65760405162461bcd60e51b815260206004820181815283516024840152835190928392604490910191908501908083836000831561117f578181015183820152602001611167565b5060008385816126e257fe5b0495945050505050565b6000818484111561273e5760405162461bcd60e51b815260206004820181815283516024840152835190928392604490910191908501908083836000831561117f578181015183820152602001611167565b505050900390565b60e01c90565b600060443d101561275c576127ef565b600481823e6308c379a06127708251612746565b1461277a576127ef565b6040513d600319016004823e80513d67ffffffffffffffff81602484011181841117156127aa57505050506127ef565b828401925082519150808211156127c457505050506127ef565b503d830160208284010111156127dc575050506127ef565b601f01601f191681016020016040529150505b9056fe5661756c745072696365466565643a20696e76616c6964205f707269636553616d706c6553706163655661756c745072696365466565643a20636f756c64206e6f74206665746368207072696365536166654d6174683a206d756c7469706c69636174696f6e206f766572666c6f775661756c745072696365466565643a204d757374207375626d6974206e65772070726963655661756c745072696365466565643a2061646a7573746d656e74206672657175656e63792065786365656465645661756c745072696365466565643a20666f7262696464656e00000000000000436861696e6c696e6b20666565647320617265206e6f74206265696e6720757064617465645661756c745072696365466565643a20696e76616c6964205f7370726561644261736973506f696e74735661756c745072696365466565643a20696e76616c69642070726963652066656564a2646970667358221220a9f78c66e62bb8121635300eadaf99882d64561c280978a2038f8b5d1df5414764736f6c634300060c0033",
  "linkReferences": {},
  "deployedLinkReferences": {}
}